:020000020000FC
:100000000C942201FFFFFFFFFFFFFFFFFFFFFFFF39
:10001000FFFFFFFFFFFFFFFFFFFFFFFFFFFFFFFFF0
:10002000FFFFFFFFFFFFFFFFFFFFFFFFFFFFFFFFE0
:10003000FFFFFFFFFFFFFFFFFFFFFFFFFFFFFFFFD0
:10004000FFFFFFFF0C94C31CFFFFFFFFFFFFFFFF3D
:10005000FFFFFFFFFFFFFFFFFFFFFFFFFFFFFFFFB0
:10006000FFFFFFFF0C94DF08FFFFFFFF0C947808F1
:10007000FFFFFFFF0C941307FFFFFFFFFFFFFFFFD2
:100080000C94821CFFFFFFFFFFFFFFFFFFFFFFFF3E
:100090000C94F30FFFFFFFFF0C94BE0FFFFFFFFF59
:1000A000FFFFFFFFFFFFFFFFFFFFFFFFFFFFFFFF60
:1000B000FFFFFFFFFFFFFFFFFFFFFFFFFFFFFFFF50
:1000C000FFFFFFFFFFFFFFFFFFFFFFFF0C94301D4F
:1000D000FFFFFFFF0C94031F0C941D14FFFFFFFF95
:1000E0000C94F013004706364638482858572735F1
:1000F0004344395A4A4B4C4D3E4E33592942616272
:1001000063660151341574751722552545024C0953
:10011000008609009D0900B10900ED09002E0A00C2
:100120005B0A002E0A0097090097090097090061F1
:100130000A00710A00AF0A00C30A00D20A00EB0AE3
:1001400000002916003216003516003816003F163A
:10015000004816004F16005216005516005C160097
:100160006316006A1600B31600B316007116007805
:100170001600B31600B31600B31600B316007F16B0
:1001800000B31600821600851600B31600B31600E1
:100190008816009116009416009B1600B31600B343
:1001A00016009E1600A11600A41600A71600B3168E
:1001B00000AA1600F717005B18004F18000018007F
:1001C0000718005B18005B18005B18005B180048FC
:1001D00018005B18005B18000E18005B18005B1815
:1001E000005B18005B18001418005B18005B180017
:1001F0005B18005B18005B18001B18002218005BDE
:1002000018005B18005B18005B18005B18005B1897
:10021000005B18005B18002918005B18005B1800D1
:100220002D18003118005B18005B18005B180035B2
:1002300018003918003D180044180000A32300FFDF
:100240000C941E2409E80DBF07E00EBFCAE8D9E0F0
:100250000E94DC23002311F00E94EE230CE312E045
:1002600020E04FE352E060E00E94A7230E945B235E
:100270000E94DA230C9420014A951AF0000F111FF6
:10028000FBCF08954A951AF016950795FBCF089570
:10029000AA929A928A927A926A925A924A92BA93BD
:1002A000AA939A938A930895AA84998488847F80D4
:1002B0006E805D804C80BB81AA8199818881F0E04D
:1002C000EC0FFD1FEF010895430043004D00530064
:1002D0004200520053004100420041004E005500D0
:1002E00053004E00500041005000430043004400C2
:1002F00043004200490054004200540052004700AD
:100300004600500047005A005000420052004B0087
:10031000410041004700460052005A004C0049008D
:100320005600530057005000530052004F00530036
:1003300046005000410046004F0053005A00500054
:1003400055004E003100530046004900440047006C
:10035000410044004F004600460049005600460058
:1003600049004800460052004D0047004100460049
:1003700047004100470047004500430047004E004A
:100380005500470052004600470052004F0047000A
:1003900052005A00470053005000530052004500DD
:1003A000470052004D0047004600520053005400E1
:1003B000410053004E0055001027204E3075409CE0
:1003C00050C360EAFFFFFFFFFFFFFFFFE803D00716
:1003D000B80BA00F88137017581B401F2823102735
:1003E0006400C8002C019001F4015802BC022003F3
:1003F0008403E8030A0014001E00280032003C00B9
:10040000460050005A0064003132333435363738F4
:10041000393000001027204E3075409C50C360EAF0
:1004200060EA60EA60EA0000E803D007B80BA00FBA
:1004300088137017581B401F282300006400C80051
:100440002C019001F4015802BC0220038403000037
:100450000A0014001E00280032003C004600500034
:100460005A000B06AADC2D4A050002000000F80124
:10047000208320E022A321830895F80132A1408146
:10048000341769F0418170E0430F4F71E40FF71F9B
:100490002283F80102A1039502A301E0089500E080
:1004A0000895F80142A1442399F04A9542A341815D
:1004B00050E0E40FF51F4281F9014083F8012181EA
:1004C0002F3111F420E001C02395218301E008952C
:1004D00000E008956A925A924A92BA93AA939A9324
:1004E0008A932C972801D901662402E00C93E42D0D
:1004F000F12F108106E0109FF001EE53FD4F30E028
:100500003BBF0791E22FFB2F0383F201108106E02E
:10051000109FF001EC53FD4F3BBF0791E22FFB2FE3
:100520000483F201108106E0109FF001EA53FD4FB1
:100530003BBF0791E22FFB2F05830CE2068384E08B
:1005400090E0F2010081025059F1025009F448C0D4
:100550000A9509F458C00A9509F457C0075009F4E0
:1005600065C0035009F464C00A9509F483C00A9574
:1005700009F406C10A9509F446C00A9509F417C1A1
:100580000A9509F459C10A9509F427C10A9509F495
:1005900026C10A9509F439C1005109F464C16BC13F
:1005A00021818E01095F1F4F0E94060600E01B8516
:1005B000112369F0FE013796E00FF61D1081FD0151
:1005C000E00FF61D178303951B85011798F38B85A4
:1005D00004960CE2FD01E80FF91F038301964BC15D
:1005E0000281013011F401E307C0023011F402E38B
:1005F00003C0033021F403E3E22FFB2F07830CE257
:10060000E22FFB2F36C101E330C1078D005DE22FE1
:10061000FB2F07830CE2008701E301870CE20287CE
:1006200001E303870CE204878AE025C106811CC12F
:100630000781005DE22FFB2F07830CE20087F201A8
:1006400020858E01095F1F4F0E94060600E01B8572
:10065000112369F0FE013796E00FF61D1081FD01B0
:10066000E00FF61D118703951B85011798F38B8505
:100670000696AFCF0185005DE22FFB2F07830CE2CA
:100680000087F201228533858E010E94170500E064
:100690001E81112361F0FE01E00FF61D1081FD01A6
:1006A000E00FF61D118703951E810117A0F38E81BF
:1006B00006960CE2FD01E80FF91F03830196F20193
:1006C000248535858E010E94170500E01E811123C7
:1006D00079F0FE01E00FF61D2081AC01400F561DA0
:1006E000FD01E40FF51F238303951E81011788F395
:1006F0000E81800F961D0CE2FD01E80FF91F0383A8
:100700000196F201268537858E010E94170500E0CB
:100710001E81112379F0FE01E00FF61D2081AC014E
:10072000400F561DFD01E40FF51F238303951E8125
:10073000011788F30E81800F961D0CE2FD01E80F72
:10074000F91F03830196F201208931898E010E94ED
:10075000170500E01E81112379F0FE01E00FF61D60
:100760002081AC01400F561DFD01E40FF51F2383CE
:1007700003951E81011788F30E81800F961D29CFE6
:10078000228933898E010E94170500E01E81112302
:1007900061F0FE01E00FF61D1081FD01E00FF61D76
:1007A000178303951E810117A0F38E8111CF248931
:1007B00035898E010E94170500E01E811123A9F3DF
:1007C000FE01E00FF61D1081FD01E00FF61D1783FD
:1007D00003951E81011748F7F3CF028D45C0238D85
:1007E00030E08E010E94170500E01E811123E9F21E
:1007F000FE01E00FF61D1081FD01E00FF61D1783CD
:1008000003951E81011788F6F3CF248D30E08E0109
:100810000E94170500E01E81112339F2FE01E00F4E
:10082000F61D1081FD01E00FF61D178303951E8153
:10083000011708F0BACFF2CF078D005DE22FFB2F32
:1008400007830CE2008701E3018700E302870CE2E3
:10085000038701E304870CE2058704E306870CE2C3
:1008600007878DE008C0078D005DE22FFB2F07830F
:100870000CE2008786E0FD0181839283082F092B1B
:1008800069F08D010D5F1F4F9C01F80141918F01AF
:10089000640E21503040422F432BB9F70396FD01DF
:1008A000E80FF91F6082019603E0A80FB91F0C93AF
:1008B00001968C012C9689919991A991B9914990B1
:1008C000599069900895BA93AA939A938A93279717
:1008D000D801B9010A01222490E001E000161204B7
:1008E0006CF089010D5F1F4F9A01F80131908F0163
:1008F000230C21503040322E332AB9F7FB01E40F8C
:10090000F51F0381201609F48BC0FD0180A102ECC4
:1009100012E020E036E0839F000D111DFB010380F3
:100920001124F8012BBF279036900214130409F00C
:1009300077C0FB010480F80132962BBF27903690D8
:100940000214130409F06CC0FB010580F801349611
:100950002BBF079116910016110609F061C0FB012B
:1009600006810C3209F05CC00781013371F491E01B
:10097000875029F08350B9F08A95A1F151C00185C3
:10098000013359F4FD0191A34BC0003309F448C071
:10099000033309F045C093E043C0003309F040C081
:1009A000FD0111A23DC01E82FA0133973A9798F0DB
:1009B0008E01675F7F4F4C505040FB012191BF017A
:1009C000F80121938F012E8123952E8341505040B1
:1009D000242F252B91F78E010E948922FD0104A36B
:1009E00015A31EC01E82FA0133973A9798F08E0124
:1009F000675F7F4F4C505040FB012191BF01F801D0
:100A000021938F012E8123952E8341505040242F16
:100A1000252B91F78E010E948922FD0102A313A3C9
:100A2000092F279689919991A991B99108951D014E
:100A30000C01D801A9012F3F0FEF500709F4D6C0D0
:100A400000E0EA2FF12F068380E090E008EB13E04E
:100A500020E0F8012BBF679176914617570708F4FD
:100A6000A3C0F80138962BBF6791769146175707B8
:100A7000F80108F45AC03E962BBF6791769146174D
:100A80005707F80108F170962BBF679176914617CA
:100A90005707FD016681362F3395368368F039E3B9
:100AA00070E0E60FF71F3083F80170962BBF679157
:100AB0007691461B570B88C038E370E0E60FF71FAE
:100AC0003083F8013E96F2CF3A962BBF679176912C
:100AD00046175707E8F0F8013C962BBF67917691CF
:100AE00046175707FD016681362F3395368340F050
:100AF00037E370E0E60FF71F3083F8013C96D6CF5E
:100B000036E370E0E60FF71F3083F8013A96CECF58
:100B1000FD016681362F3395368335E370E0E60FAD
:100B2000F71F3083F8013896C1CF34962BBF6791F9
:100B3000769146175707F801E0F036962BBF67917C
:100B4000769146175707FD016681362F3395368318
:100B500040F034E370E0E60FF71F3083F80136967B
:100B6000A5CF33E370E0E60FF71F3083F80134962A
:100B70009DCF32962BBF6791769146175707FD019F
:100B80006681362F3395368340F032E370E0E60F0E
:100B9000F71F3083F801329689CF31E370E0E60F1A
:100BA000F71F3083F80182CFFD013681332361F0D6
:100BB000382F392B49F06681362F3395368330E351
:100BC00070E0E60FF71F308301960C5E1F4F8430F4
:100BD00030E093070CF43DCFFD010681102F1395F3
:100BE0001683405DA00FB31F4C930DC006E30C931A
:100BF00005E3EA2FF12F0183028303E3038305E377
:100C0000048305E00683C001D10108951D01D801C8
:100C1000422F2F3F09F4C4C000E0EA2FF12F0483D4
:100C200000EE13E020E052E070E0642FF8012BBFEB
:100C3000079016906015710508F498C0F801389671
:100C40002BBF0790169060157105F80108F453C08A
:100C50003E962BBF0790169060157105F801E8F0DD
:100C600070962BBF0790169060157105FD01648189
:100C7000362F3395348350F039E3E60FF71F308376
:100C8000F80170962BBF6791461B7BC038E3E60FD7
:100C9000F71F3083F8013E96F5CF3A962BBF0790A9
:100CA000169060157105D8F0F8013C962BBF07909F
:100CB000169060157105FD016481362F33953483DC
:100CC00038F037E3E60FF71F3083F8013C96DACFB0
:100CD00036E3E60FF71F3083F8013A96D3CFFD01D4
:100CE0006481362F3395348335E3E60FF71F308365
:100CF000F8013896C7CF34962BBF07901690601531
:100D00007105F801D0F036962BBF0790169060154C
:100D10007105FD016481362F3395348338F034E357
:100D2000E60FF71F3083F8013696ACCF33E3E60FBA
:100D3000F71F3083F8013496A5CF32962BBF07906A
:100D4000169060157105FD016481362F339534834B
:100D500038F032E3E60FF71F3083F801329692CF76
:100D600031E3E60FF71F3083F8018CCFFD013481AA
:100D7000332339F0632F3395348330E3E60FF71FC5
:100D800030830C5E1F4F5A9509F04FCFFD0104814F
:100D9000102F13951483405DA00FB71F4C9309C00B
:100DA00002E30C9305E3EA2FF12F0183028303E0B2
:100DB0000483D1010895E6E9FEE730E03BBF0791E7
:100DC000169100933D0210933E0200917C00006852
:100DD00000937C0000917C00006400937C000091F3
:100DE0007C000F7D00937C0000917A000F7B0093C4
:100DF0007A0000917A000F7D00937A0000917A00CA
:100E0000086000937A0000917A00046000937A00F1
:100E100000917A000D7F00937A0000917A000160C2
:100E200000937A000895FA93EA931A920A924A93E9
:100E30003A932A931A930A934FB70091780010912E
:100E4000790020916E0232E0239FF001E259FD4FBC
:100E50000183128301E0E0916E02F0E0E259FD4F60
:100E600001A34FBF09911991299139914991099095
:100E70001990E991F9911895BD010091E50512E0ED
:100E8000019FEFEAF5E0E00DF11D00916F02109176
:100E900070022091B20527FD29C0068B178B0091A7
:100EA000E50512E0019FF001E155FA4F0689178927
:100EB000ECE3F6E020813181200F311F2083318364
:100EC0000091E50503950093E50510E0EAE0FEE7F3
:100ED00030E03BBF4791569104171507A0F1EFEAA8
:100EE000F5E003810068038316AB2DC0268937899E
:100EF000ACE3B6E04D915C91421B530B5C934E9377
:100F0000068B178B0091E50512E0019FF001E1557A
:100F1000FA4F06891789FD0120813181200F311F89
:100F2000208331830091E50503950093E50510E0EA
:100F3000EAE0FEE730E03BBF479156910417150702
:100F400010F01093E505DB010895BA93AA93AEE67D
:100F5000B2E00C9110E0FD01E00FF11F01A10130A2
:100F6000C9F42C91FD01E20FF11F11A30C91002394
:100F700019F00A9519F00EC07FDF0CC00C9112E039
:100F8000019FFD01E00DF11D018112810093C30558
:100F90001093C405E4E3F2E001E0048300811181D1
:100FA0000583168300E00483058127813085A8012D
:100FB000421B530B218532854217530708F441C069
:100FC000078310870C910023C9F00A95D1F500E042
:100FD0000C93FD0101A300917C00077F00937C002E
:100FE00000917C000B7F00937C0000917C000D7FC2
:100FF00000937C0000917C000E7F17C001E00C93F1
:1010000000E0FD0102A300917C00077F00937C00BB
:1010100000917C000B7F00937C0000917C000D7F91
:1010200000937C0000917C00016000937C000091A3
:101030007A00006800937A0000917A0000640093BF
:101040007A00A991B991089500910101006100937E
:101050000101009107010F7E009307010091120228
:1010600010911302037E0C6000931202109313027E
:101070000DB10C7F0DB90EB103600EB900E110E0A7
:101080001093C5000093C4000091C000026000935B
:10109000C0000091C2000F730093C2000091C20013
:1010A00003600093C2000091C1000B7F0093C10058
:1010B0000091C2000F7C0093C2000091C200077F24
:1010C0000093C2000091C100077B0093C100009112
:1010D000C1000F740093C1001093110401E000934C
:1010E00018041093F00520E203E713E00C94370294
:1010F000FA93EA932A931A930A932FB70091110453
:1011000003950093110400911104109197030117A6
:1011100051F000911104F0E0E02FE956FC4F0281FC
:101120000093C60011C000E00093120401E0009398
:1011300018040091C100077B0093C1000091C10019
:101140000F7400690093C1002FBF09911991299173
:10115000E991F991189510910601012F04FBE2E441
:10116000F7E0048100F90483E2E1F2E0118113F970
:10117000118300FF08C000910F020F3120F001E041
:101180000093F00504C00091F0050130B1F4009126
:101190000C0200FF0AC0012F0260018300910201CE
:1011A00000610093020101E00895012F0D7F01838A
:1011B000009102010F7E0093020100E00895FA936E
:1011C000EA933A932A931A930A933FB70091C60081
:1011D000009313040091C00008710093150400915E
:1011E0001304023081F400E00093120420911204F1
:1011F000022F03950093120402E0F0E0E22FEB527D
:10120000FC4F008327C003302091120499F4022F71
:1012100003950093120403E0F0E0E22FEB52FC4F41
:1012200000830091C1000F740093C10001E000939E
:10123000160410C0122F139510931204F0E0E22F41
:10124000EB52FC4F0083009112040E3118F000E0C5
:10125000009312043FBF0991199129913991E991A5
:10126000F99118957A926A92BA93AA939A938A936B
:10127000EFEAF5E003AD075F013108F036C5F0E0B5
:10128000FBBFF3E00F9FF001E25FFE4F0790179066
:1012900006910CBFF001199404E2EDE4F3E0008341
:1012A00000A329E933E08F010E946A0200939703AB
:1012B000A5E4B2E001E0FD0104830D911C911197BA
:1012C000038B148B00E00483EFEAF5E003AD039594
:1012D00003AF01E0FD0104830D911C910587168782
:1012E00000E004830091C10008640093C10000E0A5
:1012F000009311040093180400911104F0E0E02F12
:10130000E956FC4F02810093C600EFC4A5E4B2E0A9
:1013100001E0FD0104830D911C9120E024832389C9
:101320003489021B130B0B30104008F4DEC4EFEAC3
:10133000F5E003AD039503AFD8C401E0EDE4F3E0BD
:10134000008300A329E933E08F010E946A02009321
:101350009703EFEAF5E003AD039503AFA5E4B2E030
:10136000B8CFA5E4B2E001E0FD0104830D911C912A
:101370000787108B00E00483078525853685021BCF
:10138000130B053620E01040F0F4009116040130F4
:1013900009F0ABC4209316044091120450E025EDEF
:1013A00033E00DE413E00E946304013009F09DC4B2
:1013B000EFEAF5E003AD039503AFE2E1F2E001816E
:1013C0000F7D018392C4EFEAF5E003AD0A9503AF08
:1013D000E2E1F2E001810062F4CF01E0EDE4F3E04C
:1013E000028F06E1008300A329E933E08F010E9408
:1013F0006A0200939703EFEAF5E003AD039503AFAC
:10140000A5E4B2E001E0FD0104830D911C91119768
:101410000587168700E004830091C10008640093EB
:10142000C10000E00093110400931804009111041E
:10143000F0E0E02FE956FC4F02810093C600EFEA8E
:10144000F5E003AD039503AF01E0FD0104830D91C9
:101450001C910587168700E0048347C4A5E4B2E029
:1014600001E0FD0104830D911C910787108B00E0C2
:101470000483078525853685021B130B0B3010402E
:10148000A8F400911604013009F02FC400E0009385
:1014900016044091120450E025ED33E00DE413E012
:1014A0000E946304013009F020C482CFEFEAF5E026
:1014B00003AD03958CCFEDE4F3E0078D028304E0E8
:1014C00091CF07E0EDE4F3E0008300A329E933E0E6
:1014D0008F010E946A020093970303E0EFEAF5E0B0
:1014E0003CCFA5E4B2E001E0FD0104830D911C9125
:1014F0000787108B00E00483078525853685021B4E
:10150000130B093C20E0104040F500911604013017
:1015100009F0EBC3209316044091120450E025ED2E
:1015200033E00DE413E00E946304013009F0DDC3F1
:10153000EDE4F3E001A10023E2E1F2E051F00281E9
:1015400013811E7F00680283138304E0EFEAF5E055
:10155000F2CE038101600383C8C302E0F7CF00E04D
:10156000EDE4F3E0078320E103E713E00E943D028E
:1015700001E0EDE4F3E006832DE003E713E00E94D1
:101580003D0205E0E3CF29EE35E003E713E00E94DA
:1015900051020023EFEAF5E011F002ADCFCE03AD2A
:1015A0000E5FC9CEA5E4B2E001E0FD0104830D9118
:1015B0001C910787108B00E00483078525853685FD
:1015C000021B130B0739104008F48FC3EFEAF5E054
:1015D00003AD0A95B0CE00910C02000F00E0001F91
:1015E000EFEAF5E014811170011709F447C000918A
:1015F0000C0207FF41C001E00683A5E4B2E0FD0153
:1016000004830D911C91119705A316A300E0048398
:1016100005E1EDE4F3E0008300A329E933E08F0165
:101620000E946A020093970301E0FD0104830D917B
:101630001C9111970587168700E004830091C10073
:1016400008640093C10000E00093110400931804A3
:101650000091110410E0F801E956FC4F028100935B
:10166000C60001E00093020210930302FD0105A1F0
:1016700016A107A310A702C000E0068300910C0288
:10168000000F00E0001FEFEAF5E000FB048100F925
:1016900004830681002309F45BC1A5E4B2E001E004
:1016A000FD0104832D913C91119700E0048305A175
:1016B00016A13901601A710A07A110A5F901E01BF2
:1016C000F10BF39760F1FD0127A330A707E2EDE4EA
:1016D000F3E0008300A329E933E08F010E946A024E
:1016E0000093970301E0FD0104830D911C91119774
:1016F0000587168700E004830091C1000864009309
:10170000C10000E00093110400931804009111043B
:10171000F0E0E02FE956FC4F02810093C600EFEAAB
:10172000F5E006810A9551F00A9509F441C00A9541
:1017300009F4A8C00A9509F4C3C0D7C208EE601620
:1017400003E0700690F500911604013009F0CDC257
:1017500000E0009316040091D803053509F0C5C2D6
:101760000091D9030E3409F0C0C20091DA030133AD
:1017700009F0BBC20091DB030C3209F0B6C2009144
:10178000DC03033309F0B1C20091DD030C3209F030
:10179000ACC2068103950683E2E0F2E0008111818C
:1017A0000F5F1F4F00831183A0C200E006839DC21C
:1017B00008E2601603E27006C0F7009116040130DB
:1017C00009F093C200E0009316040091D80303359A
:1017D00009F08BC20091D903043509F086C200914B
:1017E000DA03013409F081C20091DB030C3209F005
:1017F0007CC20091DC03013309F077C20091DD0364
:101800000C3209F072C20091DE03003309F06DC2A0
:101810000091DF030C3209F068C20091E00300334D
:1018200009F063C20091E1030C3209F05EC208E2E4
:10183000EDE4F3E0008300A329E933E08F010E9487
:101840006A020093970301E0FD0104830D911C914E
:101850000587168700E004830091C10008640093A7
:10186000C10000E0009311040093180400911104DA
:10187000F0E0E02FE956FC4F02810093C600EFEA4A
:10188000F5E087CF00E1601607E2700608F08DCF23
:1018900000911604013009F028C200E000931604FC
:1018A0000091D803033509F020C20091D9030E340A
:1018B00009F01BC20091DA03053509F016C25ACFB0
:1018C00000E3601605E7700608F06FCF009116047C
:1018D000013009F00AC200E0009316040091D80319
:1018E000033509F002C20091D903043509F0FDC1A6
:1018F0000091DA03013409F0F8C10091DB030C32E6
:1019000009F0F3C10091DC03013309F0EEC100914D
:10191000DD030C3209F0E9C10091DE03003309F068
:10192000E4C10091DF030C3209F0DFC10091E00354
:10193000003309F0DAC10091E1030C3209F0D5C19E
:1019400003E610E000930202109303021683CDC158
:10195000038101FB00E000F910910C0215FB10E07F
:1019600010F90117C9F0038101FD04C000910C02B8
:1019700005FD02C001E001C000E0009353032DE02B
:1019800003E713E00E943D0200910C0205FBEFEA21
:10199000F5E0138111F91383028106FB00E000F9E1
:1019A00010910C0216FB10E010F90117A1F0028152
:1019B00006FD09C000910C0206FF05C023E103E704
:1019C00013E00E943D0200910C0206FBEFEAF5E0F5
:1019D000028106F90283028105FB00E000F9109103
:1019E0000C0213FB10E010F90117B1F0028105FDA4
:1019F00006C000910C0203FF02C02EE001C02FE0E0
:101A000003E713E00E943D0200910C0203FBEFEAA2
:101A1000F5E0028105F90283028104FB00E000F990
:101A200010910C0212FB10E010F90117C9F00281AD
:101A300004FD06C000910C0202FF02C001E001C0DB
:101A400000E00093540320E103E713E00E943D020D
:101A500000910C0202FBEFEAF5E0028104F9028337
:101A6000048101FB00E000F9E8E0F2E0158111706B
:101A7000011741F005810170EFEAF5E000FB0481F8
:101A800001F90483AEE1B2E00D911197013009F440
:101A900051C010910B021770212FEFEAF5E0118170
:101AA0001E70012F0695021709F477C02A9539F0A8
:101AB000225049F02A9559F02A9569F016C0E2E8BB
:101AC000FEE730E00BC0E4E8FEE730E007C0E6E800
:101AD000FEE730E003C0E8E8FEE730E03BBF0791F7
:101AE0001691009361031093620324E103E713E06E
:101AF0000E943D02EFEAF5E0038100640383118157
:101B0000117F20910A0230910B02220F331F3E7089
:101B1000132B1183A2E1B2E02D911197237E009146
:101B20000A0210910B0246E00E9442010C71202B28
:101B30002D9333C0FD0102811381EFEAF5E0218985
:101B400032892017310749F1013321E1120718F0DA
:101B500000E3FD010AC0038100640383FD010281EB
:101B6000043620E0104018F404E602832383028147
:101B70001381009361031093620324E103E713E0F0
:101B80000E943D02FD0102811381EFEAF5E0018B25
:101B9000128B00931A0210931B0250910B02152F07
:101BA00000E0107C003020EC1207D1F1228133815B
:101BB00020783170220F232F221F34E0452F439FBE
:101BC000211571F1003020E4120741F404E610E021
:101BD00000935F031093600322E10AC0003020E805
:101BE000120719F404E213E1F3CF012B29F42CE0DE
:101BF00003E713E00E943D02EFEAF5E00281138162
:101C00000F771E7F20910A0230910B02220F232FA3
:101C1000221F30E0331F2078022B132B0283138303
:101C2000009118040130A1F529EE35E003E713E037
:101C30000E945102002361F1EFEAF5E002ADEDE40C
:101C4000F3E0008300A329E933E08F010E946A02D8
:101C500000939703A5E4B2E001E0FD0104830D9138
:101C60001C910587168700E004830091C100086479
:101C70000093C10000E00093110400931804009148
:101C80001104F0E0E02FE956FC4F02810093C600FA
:101C9000A5E4B2E001E0FD0104830D911C911197D0
:101CA0000787108B00E0048387859089058516855A
:101CB000801B910B8333904040F001E004830D9131
:101CC0001C910587168700E00483009116040130FB
:101CD00061F400E0009316044091120450E025EDF9
:101CE00033E00DE413E00E94630489919991A99176
:101CF000B99169907990089500910A01016000936B
:101D00000A0100910A01026000930A0100910A0190
:101D1000046000930A010AB1037F0AB90BB10C6099
:101D20000BB90091040100610093040109E110E086
:101D30001093CD000093CC000091C8000D7F00935C
:101D4000C8000091CA000F730093CA000091CA0036
:101D500003600093CA000091C90004600093C900A9
:101D60000091CA000F7C0093CA000091CA00077F4F
:101D70000093CA000091C90008640093C900009153
:101D8000C9000F740093C900009105010061009320
:101D90000501EDE1F4E006E0008304E001830EE2DA
:101DA00012E000933202109333020AE212E0009331
:101DB000300210933102EFEAF5E003E00783008779
:101DC0000895BA93AA939A938A93E4E3F2E001E028
:101DD0000483008111810387148700E00483038555
:101DE000ADE1B4E025853685A801421B530B483E82
:101DF000534008F456C0058716874BD100EAFD0111
:101E000002832C9130E0E20FF31F01830091300236
:101E100010913102F8012081FD012383F801218115
:101E2000FD012483F80122812F77FD012583F8012C
:101E300003810F77FD01068381E090E00CC00C91D7
:101E4000FD01E80FF91F2281FD01E00FF31F018161
:101E5000022701830196EC91F0E031978E179F07DE
:101E600074F30091C90008640093C9000091C9008F
:101E70000F740093C90000910501006100930501F2
:101E8000FD01FF9633AF0091C90001600093C900C6
:101E9000FD01FF9603ADFD01E00FF31F02810093EA
:101EA000CE00FD01E158FF4F0081013009F046C02E
:101EB00000E0FD01E158FF4F0083FD0106ADED5745
:101EC000FF4F008301E030E00AC0E00FF31F16ADC2
:101ED000FD01ED57FF4F2081212720830395202FFF
:101EE000FD01818190E001972817390774F3ED57C0
:101EF000FF4F2081FD010181E00FF31F05AD201789
:101F0000E9F4E5E4F2E001E0048300811181058B4E
:101F1000168B3483E2E1F2E001810F7B0183FD0146
:101F200007ADE0913202F09133020083DF96FD01AC
:101F30000181E0913202F09133020183E5E4F2E0A5
:101F400001E0048300811181078B108F00E004837E
:101F5000078925893689A801421B530B4436504016
:101F600038F0058B168BE2E1F2E001810064018319
:101F700057D289919991A991B9910895FA93EA93C9
:101F80002A931A930A932FB700919704039500930D
:101F900097040091970410911D0401170091C90046
:101FA00079F4077B0093C9000091C9000F740069A0
:101FB0000093C900009105010F7E009305010CC03C
:101FC0000E7F0093C90000919704F0E0E02FE35EDC
:101FD000FB4F02810093CE002FBF099119912991E7
:101FE000E991F99118959A938A93FA93EA933A931F
:101FF0002A931A930A933FB71091C9001270109355
:102000009A040091CE00009399040091C8000871D1
:1020100000939B0421F000E00093980430C00091ED
:102020009904112371F0013A51F500E000939804EE
:1020300001EA20919804F0E0E22FE55AFB4F00837B
:102040001EC0109198041395109398042091980441
:10205000F0E0E22FE55AFB4F00830091980410E076
:1020600080911E0490E001970817190741F4009130
:10207000C9000F740093C90001E000939C043FBFA6
:102080000991199129913991E991F9918991999140
:10209000189500910D0201FBEAE2F2E0118111F9BD
:1020A000118302FB16F9118303FB008103F90083FE
:1020B00000910D0204FB13F9118305FB008105F962
:1020C000008300910D0206FB008106F90083009158
:1020D00012021091130203701170013020E01040C1
:1020E00071F410910B0200E01073203020E1120710
:1020F00011F417D004C00030104209F42ED0009122
:1021000012021091130203701170033020E010408E
:1021100039F410910B0210732030104209F41DD0D5
:102120000895E2E1F2E0048101600483EAE2F2E072
:1021300000810460008330910B02132F00E0107CBB
:102140000030104C008131F00C7F44E0232F249F9D
:10215000012901C00C7F00830895E2E1F2E00481CF
:102160000E7F048300913306002369F00A9509F479
:1021700071C00A9509F4BEC00A9509F4FBC00A951E
:1021800009F445C10895EAE2F2E000810B7F008383
:1021900000E00093C3050093C40500EE1EE0009329
:1021A0003A0610933B0600933406109335060091CF
:1021B0003C0610913D060093360610933706209199
:1021C00036063091370600EE1EE0021B130B00931B
:1021D000380610933906013040E014073CF411959D
:1021E000019510400093380610933906409152062D
:1021F000509153068A010052114F0217130754F4ED
:1022000000913E06039500933E06063008F407C190
:1022100001E010C000EE1EE0041B150B2017310773
:10222000ACF400913E06039500933E06063008F498
:10223000F6C002E00093330600E000933E060093F0
:102240003F060093400600934106089500E0009386
:102250003E060895EAE2F2E0008104600083009106
:102260003A0610913B060093340610933506009110
:102270003C0610913D0600933606109337062091D8
:10228000360630913706009134061091350640919C
:10229000500650915106B801640F751F62177307FD
:1022A00014F500561F4F021713072CF400810C7F02
:1022B00002600083089500913F06039500933F0656
:1022C0000330A0F300913F06043008F0A8C0EAE212
:1022D000F2E020812C7F2083033009F0A0C000E0D1
:1022E00000933F060895EAE2F2E000810C7F00834C
:1022F00003E08AC0EAE2F2E000810460008300911A
:102300003A0610913B06009334061093350600916F
:102310003C0610913D060093360610933706209137
:10232000360630913706E0913406F091350640913B
:102330005006509151068F01041B150B20173107D1
:1023400094F6E05AF0402E173F075CF400912A0201
:1023500010912B020C7F016000932A0210932B0234
:10236000089500913F06039500933F06033008F05F
:10237000A9CFECCF00913A0610913B0600933406AA
:102380001093350600913C0610913D0600933606E9
:1023900010933706009134061091350620913606C9
:1023A00030913706021B130B009338061093390641
:1023B000013020E012073CF4119501951040009384
:1023C0003806109339060091520610915306209159
:1023D000380630913906021713075CF40091400665
:1023E000039500934006053039F400E0009333066E
:1023F00003C000E00093400600914106039500935E
:102400004106023360F004E0009333060895EAE2E7
:10241000F2E000810B7F008300E000933306089513
:1024200000912E0202FBE2E1F2E0048101F9048353
:1024300000912E0204FB048102F9048300912E0214
:1024400003FB048103F9048300912E0205FB048140
:1024500004F9048300912F0201FB048105F9048330
:1024600000912F0206FB048106F9048300912E02DD
:1024700001FB048107F9048308955B2F6A2FAFEAFB
:10248000B5E0FD0107A9002309F007C110910B0277
:10249000177041F000910B0203FD02C000E001C083
:1024A00001E0078307811085011709F47AC0013024
:1024B000A9F4E2E1F2E001810160018300910B01E6
:1024C000016000930B0100910B01026000930B016E
:1024D00000910B010B7F00930B015FC0002309F0FB
:1024E0005CC010910B0200E01770003021E0120771
:1024F00059F511961C9111971F78106111961C9334
:10250000119700911202109113020C7F0160009349
:10251000120210931302E5E4F2E02483008111819A
:10252000018F128F00E0048300910B010160009382
:102530000B0100910B010D7F00930B01FD0127ABF7
:1025400000910B010460C7CF123038F111961C9135
:1025500011971F78106311961C931197E2E1F2E036
:10256000008103600083E5E4F2E0248300811181AF
:10257000018F128F00E0048300910B010E7F009306
:102580000B0100910B010D7F00930B0100910B01DA
:10259000046000930B01FD0127ABFD01078100875B
:1025A000A0C0002309F09DC010910B0200E017703D
:1025B00011963C91119720E03077432F4695469530
:1025C00046954695411709F48CC040910B0243FD96
:1025D0004FC0003041E0140741F5003000E1300702
:1025E00021F100911202109113020C7F01600093FF
:1025F000120210931302E5E4F2E04483008111819A
:10260000018F128F248300910B01016000930B0155
:1026100000910B010D7F00930B01FD0147AB009171
:102620000B01046000930B0123C0123008F120302D
:102630003041F1F4E2E1F2E0008103600083E5E47F
:10264000F2E0448300811181018F128F2483009175
:102650000B010E7F00930B0100910B010D7F009386
:102660000B0100910B01046000930B01FD0147ABCE
:1026700011961C9111971F7820910A0230910B023C
:10268000220F331F220F331F220F331F220F331F3E
:102690003077132B11961C9324C0013011F5E5E41B
:1026A000F2E001E0048300811181038F148F00E0C8
:1026B0000483038D218D328D021B130B0A3520E01C
:1026C000104078F000910B010B7F00930B01FD018E
:1026D00027AB00910B0203FBE2E1F2E0118110F95C
:1026E0001183A62FB52F089510910601012F05FB28
:1026F000E2E4F7E0048101F90483E2E1F2E0118110
:1027000014F9118301FF06C000910F020E3210F080
:1027100001E002C00091EF050093EF05013041F4A4
:10272000012F046001830091020100620093020105
:1027300008950091010100620093010100910701D9
:102740000F7D0093070100E00093EF050091040165
:102750000C7F0093040100910501036000930501C3
:1027600007E610E010933501009334010091300129
:102770000D7F00933001009132010F7300933201FD
:1027800000913201036000933201009131010B7F0F
:1027900000933101009132010F7C009332010091CE
:1027A0003201077F0093320100913101077B0093D2
:1027B0003101009131010F74009331011093A30591
:1027C00001E00093E7051093E8051093ED051093E1
:1027D000EB051093EC0520E209E213E00C943702BC
:1027E000FA93EA932A931A930A932FB70091A305B9
:1027F00003950093A3050091A305109129050117E6
:1028000051F00091A305F0E0E02FE75DFA4F02815F
:10281000009336010BC000913101077B0093310119
:10282000009131010F740069009331012FBF0991AC
:1028300019912991E991F9911895FA93EA933A93AC
:102840002A931A930A933FB7009136010093A50586
:102850000091300108710093A70509F044C0009170
:10286000A505083811F0003979F410E01093A4059B
:102870002091A405122F13951093A405F0E0E22FE8
:10288000E959FA4F00832FC00F3FD9F41091670523
:10289000183811F01039A9F42091A405022F0395DE
:1028A0000093A4050FEFF0E0E22FE959FA4F0083FF
:1028B000009131010F740093310101E00093A805EC
:1028C00012C02091A405122F13951093A405F0E0D7
:1028D000E22FE959FA4F00830091A4050E3118F058
:1028E00000E00093A4053FBF099119912991399106
:1028F000E991F99118950091ED05002309F406D0AE
:102900000091ED05013009F436D408955A924A92A7
:10291000BA93AA939A938A930FEA402E05E0502E19
:10292000EFEAF5E005AD002379F00A95F1F00A959C
:1029300009F4C1C00A9509F442C10A9509F417C205
:102940000A9509F42BC310C421E009E213E00E94A8
:102950003D0222E009E213E00E943D0201E0EFEABD
:10296000F5E005AF00E001AFFFC301AD002309F0C2
:1029700055C09201285C3F4F09E213E00E945102CA
:102980000023F9F1EFEAF5E000AD013039F42BE274
:1029900035E00FE912E00E943F1F08C0023041F409
:1029A0002BE235E00FE912E00E944A1F009329054F
:1029B00008EC10E0E5E4F2E00187128701E0EFEABD
:1029C000F5E001AFE5E4F2E00483008111810583C5
:1029D000168300E004830091310108640093310103
:1029E00000E00093A3050093A4050093A8050091BF
:1029F000A305F0E0E02FE75DFA4F02810093360176
:102A0000B3C302E01DE3410E10E0511EF20100834A
:102A1000E2E1F2E001810F770183A6C3E5E4F2E091
:102A200001E00483008111810783108700E00483A3
:102A3000018512852781308545815681241B350B00
:102A40000217130710F10091A805013009F08CC39B
:102A500000E00093A80527E635E00FE912E00E94A8
:102A60007C20013019F0023009F07EC300E0F20151
:102A700001AFE2E1F2E001810F77018300E01CE3A6
:102A8000410E501EF20100836FC3EFEAF5E020AD66
:102A900009E213E00E943D0200E0EFEAF5E001AF39
:102AA00004AD039504AF033008F45EC3E2E1F2E045
:102AB00001810068B1CF24E609E213E00E943D02E3
:102AC00025E609E213E00E943D0226E609E213E052
:102AD0000E943D0227E609E213E00E943D0228E63B
:102AE00009E213E00E943D0229E609E213E00E9498
:102AF0003D022AE609E213E00E943D022BE609E2CC
:102B000013E00E943D022CE609E213E00E943D0220
:102B10002DE609E213E00E943D022EE609E213E0F1
:102B20000E943D022FE609E213E00E943D0222E7E7
:102B300009E213E00E943D0223E709E213E00E944C
:102B40003D0228E709E213E00E943D022AE709E27C
:102B500013E00E943D022BE709E213E00E943D02D0
:102B60002EE709E213E00E943D022FE709E213E09D
:102B70000E943D0220E809E213E00E943D0221E8A4
:102B800009E213E00E943D0224E809E213E00E94FA
:102B90003D0225E809E213E00E943D0226E809E231
:102BA00013E00E943D0227E809E213E00E943D0283
:102BB00029E809E213E00E943D0203E0D0CE01AD16
:102BC0000023A9F49201285C3F4F09E213E00E9420
:102BD0005102002351F0EFEAF5E040AD2BE235E081
:102BE0000FE912E00E942621E1CE04E00BCF85E43C
:102BF000F2E001E0E5E4048300811181078310879E
:102C000000E0048301851285278130854581568146
:102C1000241B350B0217130708F437CF0091A805C2
:102C2000013009F0A1C200E00093A805F20100AD57
:102C30000456063208F097C0F0E0FBBFF3E00F9FA8
:102C4000F001EE5BFE4F0790179006910CBFF0016C
:102C5000199444EF52E027E635E00FE912E00E94B4
:102C6000342180C049EF52E077C045EF52E0F3CF06
:102C700027E635E00FE912E00E948E2173C048EF8D
:102C800052E027E635E00FE912E00E9472216AC0A7
:102C900027E635E00FE912E00E94A42163C04BEF64
:102CA00052E05AC04DEF52E057C027E635E00FE939
:102CB00012E00E94BA2156C027E635E00FE912E083
:102CC0000E94D0214FC027E635E00FE912E00E94B4
:102CD000EA2148C027E635E00FE912E00E940C2205
:102CE00041C027E635E00FE912E00E9432223AC0E7
:102CF00027E635E00FE912E00E94592233C04CE08C
:102D000053E0A9CF4EE053E0A6CF4FE053E0A3CF6E
:102D100043E153E027E635E00FE912E00E94342159
:102D200022C044E153E097CF27E635E00FE912E0F7
:102D30000E946F2218C046E153E08DCF49E153E075
:102D40008ACF4AE153E087CF4BE153E084CF4CE197
:102D500053E081CF4EE153E027E635E00FE912E082
:102D60000E944E21802F882309F080CEFDC101E012
:102D7000AFE9B2E0FD01EB5AFF4F1081112339F4A6
:102D80000C9324E009E213E00E943D0200E0FD0103
:102D9000EB5AFF4F1181112349F401E0FD01048337
:102DA00027E009E213E00E943D0200E0FD01EB5A3A
:102DB000FF4F1281112349F401E0FD01058328E052
:102DC00009E213E00E943D0200E0FD01EB5AFF4FD3
:102DD00021853285203010EC304C51F000E0FD01AF
:102DE0000487158720E109E213E00E943D0200E01C
:102DF000FD01EB5AFF4F1785113049F000E0FD014E
:102E0000038B25E109E213E00E943D0200E0FD0191
:102E1000EB5AFF4F1289113049F000E0FD01008F9D
:102E20002BE109E213E00E943D0200E0FD01EB5AB4
:102E3000FF4F1389123049F002E0FD01018F2CE1B0
:102E400009E213E00E943D0200E0FD01EB5AFF4F52
:102E5000108D112349F000E0FD0102A325E209E2F3
:102E600013E00E943D0200E0FD01EB5AFF4F128D7E
:102E7000112349F000E0FD0105A328E209E213E077
:102E80000E943D0200E0FD01EB5AFF4F138D11231C
:102E900049F000E0FD0106A329E209E213E00E94E7
:102EA0003D0200E0FD01EB5AFF4F178D112349F061
:102EB00000E0FD0103A72DE209E213E00E943D02BC
:102EC00000E0FD01EB5AFF4F10A1112349F000E093
:102ED000FD0104A72EE209E213E00E943D0200E09A
:102EE000FD01EB5AFF4F11A1112349F000E0FD0154
:102EF00005A72FE209E213E00E943D0200E0FD0178
:102F0000EB5AFF4F12A1112349F000E0FD0106A783
:102F100020E309E213E00E943D0200E0FD01EB5ACC
:102F2000FF4F1381113049F403E0FD0103872DE0C9
:102F300009E213E00E943D0200E0FD01EB5AFF4F61
:102F400085819681EAE7FEE730E03BBF47915691E5
:102F5000841B950B8A30904050F0FD0142835383CF
:102F600026E009E213E00E943D0205E0F8CC209142
:102F70001202309113022F712066209312023093B7
:102F80001302002391F3E2E1F2E00681046006837C
:102F900001E0EFEAF5E006AF00E0E3CC01AD00238D
:102FA00009F08FC09201285C3F4F09E213E00E94B4
:102FB0005102002309F425CD04EF11E0E5E4F2E02D
:102FC00001871287EFEAF5E050AD052F04500D326E
:102FD00008F071C0F0E0FBBFF3E00F9FF001EC548C
:102FE000FE4F0790179006910CBFF0011994AFE9BE
:102FF000B2E04C912BE235E08D010E94571F59C081
:10300000EFE9F2E044812BE235E08F01F6CF2BE2CD
:1030100035E00FE912E00E940D204BC0652FEFE96B
:10302000F2E04485558540C02BE235E00FE912E01F
:103030000E9441203EC02BE235E00FE912E00E94E1
:103040004D2037C02BE235E00FE912E00E945920F5
:1030500030C0EFE9F2E042A1D6CFEFE9F2E045A1BE
:10306000D2CFEFE9F2E046A1CECFEFE9F2E043A5FF
:10307000CACFEFE9F2E044A5C6CF2BE235E00FE975
:1030800012E00E94652015C0EFE9F2E046A5BBCF33
:103090002BE235E00FE912E00E9419200AC0652FEB
:1030A000EFE9F2E0428153812BE235E08F010E948B
:1030B000E21F0093290500E0EFEAF5E007AF01E029
:1030C00080CC01E0E5E4F2E0048300811181078314
:1030D000108700E0048301851285278130854581B2
:1030E0005681241B350B0217130708F4CECC009130
:1030F000A8050130C9F500E00093A80527E635E0F2
:103100000FE912E00E947C20033011F00D30C1F471
:10311000009131010F7400690093310100E00093C8
:10312000A405EFEAF5E000AD063039F408EE13E04F
:10313000E5E4F2E00187128717C008EC10E0F8CF51
:10314000043011F00E3081F400E0F20101AFE2E151
:10315000F2E001810F77018300E01CE3410E501E75
:10316000F20100830093A40589919991A991B991E5
:10317000499059900895BA93AA939A938A938FEAA3
:1031800095E0FC01038104FD18C2008103FB00E00F
:1031900000F9E8E0F2E0168116FB10E010F90117E3
:1031A00001F1FC01008103FD07C0E8E0F2E00681C7
:1031B00006FF02C001E001C000E00093CB022EE256
:1031C00009E213E00E943D022FE709E213E00E94AA
:1031D0003D02E8E0F2E0068106FBFC01008103F914
:1031E0000083FC01008105FB00E000F9E8E0F2E06B
:1031F000168113FB10E010F9011701F1FC010081A9
:1032000005FD07C0E8E0F2E0068103FF02C001E02F
:1032100001C000E00093D00223E309E213E00E9422
:103220003D0224E809E213E00E943D02E8E0F2E0FA
:10323000068103FBFC01008105F90083FC0100818C
:1032400004FB00E000F9E8E0F2E0168115FB10E075
:1032500010F9011761F1FC01008104FD0AC0E8E0EA
:10326000F2E0068105FF05C02BE309E213E00E94AE
:103270003D02FC01008104FF0DC0E8E0F2E00681A0
:1032800005FD08C000E00093EC022CE309E213E026
:103290000E943D02E8E0F2E0068105FBE2E1F2E097
:1032A000068104F90683FC01008104F90083FC0116
:1032B000038102FB00E000F9E8E0F2E01681110F63
:1032C00010E0111F011719F1FC01038102FD07C075
:1032D000E8E0F2E0068107FF02C007EB01C000E072
:1032E0000093A6022AE009E213E00E943D02E8E012
:1032F000F2E00681000F00E0001FE2E1F2E000FBD7
:10330000068103F90683FC01138112F91383EEE1B0
:10331000F2E00081023009F4DEC0E8E0F2E006816C
:1033200000FF7BC0602F6670FC0120813181207C12
:10333000317046E089010E944201102F062F069548
:10334000101709F4F6C0022F032B19F0203C30406F
:10335000C9F5643009F049C0E2E1F2E0008102956C
:103360000F700695053070F50081007E003221F463
:10337000EAE7FEE730E00BC0003621F4ECE7FEE7B9
:1033800030E005C0003851F4EEE7FEE730E03BBF27
:10339000079116910093A1021093A20226E009E280
:1033A00013E00E943D0225E609E213E00E943D027F
:1033B000E8E0F2E0068104FF05C02EE009E213E038
:1033C0000E943D02FC01208131812F733E7FE8E0A5
:1033D000F2E006810670069510E046E00E943C018E
:1033E000202BFC0120833183A4C0623059F7E2E135
:1033F000F2E0008102950F700695023018F300810B
:10340000007E003A09F4BACF003809F4B1CF003693
:1034100029F6E8E7FEE730E0BACF13811770012FF5
:10342000FC01138113FB10E010F9E8E0F2E02381C6
:1034300023FB20E020F9121781F4FC012281277080
:10344000201759F4128113FB10E010F9E8E0F2E0C4
:1034500026812170121709F46CC00A9539F00250C8
:10346000D9F00A9539F00A9571F020C0E8E7FEE737
:1034700030E015C0E8E0F2E0038103FF0DC0ECE7A7
:10348000FEE730E00CC0E8E0F2E0038103FF04C097
:10349000EEE7FEE730E003C0EAE7FEE730E03BBFDF
:1034A000079116910093A1021093A20226E009E26F
:1034B00013E00E943D0225E609E213E00E943D026E
:1034C000E8E0F2E0068104FF34C02EE009E213E0F8
:1034D0000E943D022EC002811381FC0121893289A4
:1034E0002017310731F1013020E4104428F000E0CA
:1034F000EEE1F2E002832383EEE1F2E00281138148
:103500000093A1021093A20226E009E213E00E94B8
:103510003D0225E609E213E00E943D02EEE1F2E001
:1035200002811381FC01018B128B00931A0210930C
:103530001B02E8E0F2E0038103FBFC01138113F9B5
:1035400013830281087FE8E0F2E023812770022BD9
:10355000FC010283E8E0F2E006810170FC0100FB5F
:10356000028103F90283012F05FB00E000F9E8E086
:10357000F2E0168114FB10E010F9011709F1FC01CB
:10358000038105FD07C0E8E0F2E0068104FF02C008
:103590002EE001C02FE009E213E00E943D02E8E0C6
:1035A000F2E0068104FBE2E1F2E0068100F9068325
:1035B000FC01138115F9138303C00281087F028384
:1035C000FC0101AD002309F08DC09C01285C3F4F38
:1035D00009E213E00E945102002309F45AC1FC01E0
:1035E00040AD042F0458E1F1025871F10450F9F193
:1035F000045009F446C00A9509F44AC00F5159F025
:10360000055099F00850A9F00A95D1F0095241F1FE
:103610000A5131F145C0542F4091CB022BE235E0E5
:103620000FE912E00E94571F39C0542F4091D00279
:10363000F5CF2BE235E00FE912E00E9471202EC099
:10364000542F4091EC02EACF642F4091A102509197
:10365000A2022BE235E00FE912E00E94E21F1EC039
:103660002BE235E00FE912E00E94262117C0542F0B
:103670004091A6022BE235E00FE912E00E94A51F5F
:103680000DC02BE235E00FE912E00E94252006C0B4
:103690002BE235E00FE912E00E943020009329056B
:1036A00001E0FC0101AFE5E4F2E004830081118157
:1036B0000583168300E004830091310108640093C0
:1036C000310100E00093A3050093A4050093A80531
:1036D0000091A305F0E0E02FE75DFA4F028100932F
:1036E0003601D7C0E5E4F2E001E0048300811181F6
:1036F0000783108700E00483078125813681021B40
:10370000130B093E134008F0B1C00091A805013029
:1037100009F0BFC000E00093A805FC0110AD1F3701
:1037200029F0143819F0153609F089C01458F1F051
:10373000115E19F01A5151F029C049EF52E027E605
:1037400035E00FE912E00E944E2120C044E153E031
:1037500027E635E00FE912E00E943421209114039E
:10376000E2E1F2E020FB268125F90FC049E153E0B8
:1037700027E635E00FE912E00E9434212091190379
:10378000E2E1F2E020FB268121F92683002309F4FF
:1037900080C0A091F902B091FA02E8E7FEE730E0BC
:1037A0003BBF07911691FD01E01BF10B3A9730F4F6
:1037B000E2E1F2E000810F71006231C0EAE7FEE76A
:1037C00030E03BBF07911691FD01E01BF10B3A97EA
:1037D00030F4E2E1F2E000810F71006620C0ECE716
:1037E000FEE730E03BBF07911691FD01E01BF10BB6
:1037F0003A9730F4E2E1F2E000810F7100680FC007
:10380000EEE7FEE730E03BBF07911691A01BB10B3E
:103810001A9730F4E2E1F2E000810F71006A008350
:1038200000E0FC0101AFE2E1F2E001810F770183EA
:1038300000E0CC96FC0100830093A4052AC027E693
:1038400035E00FE912E00E947C20033011F00D30CA
:1038500041F4009131010F7400690093310100E0DF
:10386000EBCF0430E9F20E30A1F4DACFFC0120AD49
:1038700009E213E00E943D0200E0FC0101AF04AD4B
:10388000039504AF033028F0E2E1F2E00181006823
:10389000018389919991A991B991089500E004BF9C
:1038A00008E1009360000FE000936000089500912C
:1038B00094001091950000E010E0009395000093B3
:1038C00094000091900010939000009191000AE004
:1038D00000939100009198001091990000E21EE47D
:1038E00010939900009398000091710002E00093FA
:1038F0007100E5E4F2E000E00083018302830383CA
:1039000004830895FA93EA932A931A930A932FB79C
:10391000E5E4F2E0028113810F5F1F4F02831383FE
:103920000481002321F402811381008311832FBFBE
:10393000099119912991E991F991189500918400C3
:103940001091850000E010E0009385000093840052
:1039500000918000109380000091810009E00093A5
:103960008100009188001091890000E213E010931B
:1039700089000093880000916F0002E000936F00BF
:10398000E4E3F2E0B8CFFA93EA932A931A930A9306
:103990002FB7E4E3F2E0BECF009101010C7F00936A
:1039A0000101009102010C600093020100910401E9
:1039B00000620093040109E110E01093D500009328
:1039C000D4000091D0000D7F0093D0000091D20070
:1039D0000F730093D2000091D20003600093D200D5
:1039E0000091D10004600093D1000091D0000160EB
:1039F0000093D0000091D2000F7C0093D200009180
:103A0000D200077F0093D2000091D100077B009382
:103A1000D1000091D1000F7400690093D100009192
:103A200005010F7D009305011093220510932305D6
:103A300008E012E0009324021093250202E112E054
:103A400000932602109327020EE112E00093280251
:103A500010932902EFEAF5E00381006103830895E2
:103A6000FA93EA931A920A926A935A934A933A9370
:103A70002A931A930A935FB76BB71091D100127013
:103A8000109320050091D60000931F050091D000EF
:103A900008710093210509F062C011230091D00044
:103AA000A1F100FF5CC000E0E4E6F4E030E020912A
:103AB0001F0504C00395023008F056C03BBF1791A4
:103AC0002117C1F71091D0001E7F1093D00010E095
:103AD00010931E05402FF801EE59FB4F3BBF169186
:103AE0001093A4040093270500911E05102F139531
:103AF00010931E05E1EEF4E010E0E00FF11F0EE17F
:103B0000049FE00DF11D20832FC000FD28C02091EF
:103B1000270500911E05102F139510931E05309157
:103B20001F05E1EEF4E010E0E00FF11F0EE1209F31
:103B3000E00DF11D308300911E051091A4040117C2
:103B400099F40091D1000F740093D10001E020910D
:103B50002705F0E0E22FEE5DFA4F008305C00091EB
:103B6000D00001600093D0006BBF5FBF0991199135
:103B70002991399149915991699109901990E99147
:103B8000F9911895BA93AA939A938A9301E0E5E480
:103B9000F2E004830081118101A312A300E00483F9
:103BA00001A123A134A1021B130B053620E0104014
:103BB000B8F001E004830081118103A314A32483DE
:103BC0000091D100077B0093D1000091D1000F74C8
:103BD0000093D100E1DEEFEAF5E0038100610383A9
:103BE000A3EAB4E0FD01E658FF4F028510E0FD01B5
:103BF000E00FF11FE158FF4F0081013009F0FEC0D6
:103C0000FD01E658FF4F228530E0FD01E20FF11F74
:103C1000E158FF4F1083FD01E658FF4F12850EE17A
:103C2000109FFD01E00DF11D06ADFD01E658FF4FAF
:103C3000018701E012C0E658FF4F42851EE1419F17
:103C4000FD01E00DF11DE00FF31F16ADFD01ED5775
:103C5000FF4F2081212720830395202FFD01E18143
:103C6000F0E031972E173F07FD012CF3E658FF4F88
:103C70004185FD01E658FF4F12850EE1109F8D0131
:103C8000000D111DFD012181020F131F035C1F4F49
:103C9000F8010081401709F0A6C001E0E5E4F2E078
:103CA00004830081118103A314A33483FD01E6582A
:103CB000FF4F0285002309F068C0EFEAF5E00381B9
:103CC0000F7E038381E090E014C0FD01E658FF4FB2
:103CD00012850EE1109FFD01E00DF11DE80FF91FA7
:103CE00006ADE0912402F0912502E80FF91F02933E
:103CF0000196FD01E181F0E031978E179F072CF3CB
:103D000005EAFD010283E658FF4F30830DE00C9376
:103D100005EA2C91FD01E20FF31F018381E090E0A1
:103D200014C08D01080F191FE0912602F09127029F
:103D3000E80FF91F2291F80122830C91FD01E00F99
:103D4000F31F0181022701830196EC91F0E0319786
:103D50008E179F0730F30091050100620093050163
:103D60000091D10008640093D1000091D10001605E
:103D70000093D100FD01E658FF4F0081A00FB31F53
:103D8000FD0102810093D60039C0FD01E658FF4FC6
:103D90000285013099F5FD01E658FF4F52854EE14D
:103DA000549FFD01E00DF11D47ADEEE1F2E04083CF
:103DB000FD01E658FF4F32852EE1329FFD01E00DF7
:103DC000F11DE05CFF4F2081FD01E658FF4F428569
:103DD0003EE1439FA00DB11DAF5BBF4F3C91EEE1B3
:103DE000F2E0228333830091D00001600093D00081
:103DF0000091D1000F7400690093D10089919991CD
:103E0000A991B9910895FA93EA932A931A930A9380
:103E10002FB700911D05039500931D0500911D0509
:103E20001091A304011779F00091D1000E7F009347
:103E3000D10000911D05F0E0E02FED55FB4F028110
:103E40000093D60015C00091D00001600093D0000F
:103E5000009105010F7D009305010091D100077BC2
:103E60000093D1000091D1000F7400690093D1003C
:103E70002FBF099119912991E991F991189508E8B5
:103E8000F901008300E3018301E002830FEF038364
:103E900004E0089508E8F901008301E0018300E0EF
:103EA000028301E003830FEF048305E0089501E836
:103EB000F901008301E0018304E00283442311F04F
:103EC00002E001C003E004830FEF05835450E9F0E2
:103ED0005350E9F05E51E9F05350E9F05A95E9F09A
:103EE0005450E9F05A95E9F05250E9F05A95E9F04A
:103EF0005A95E9F05A95E9F05A95E9F05450E9F0ED
:103F00005250E9F05250E9F01EC000E01BC006E03C
:103F100019C00EE317C003E315C009E513C001E69D
:103F200011C002E60FC006E60DC001E00BC001E5BE
:103F300009C004E307C005E105C004E703C005E7C5
:103F400001C00CE7038306E00895F90101E800834E
:103F500001E0018304E0028300E0048305830FEFA6
:103F60000087042F02950F7006834F7047835A50C5
:103F700019F15D5089F0525089F0545089F0525037
:103F800089F0525089F0525089F0535089F05550C1
:103F900089F0565199F014C003E411C004E40FC035
:103FA0000AE40DC00BE40BC00CE409C00DE407C02B
:103FB0000EE405C002E403C006E401C005E4038387
:103FC00009E00895F90101E8008301E0018304E0BC
:103FD00002830FEF0087052F069506950695069537
:103FE0000483052F0F700583042F02950F7006833D
:103FF0004F704783665039F0665039F0645039F09D
:104000006E5239F008C007E405C008E403C008E2B6
:1040100001C002E2038309E0089541E8F901408309
:1040200041E0418344E0428346E34383F801058154
:1040300022C041E8F901408341E0418344E04283EA
:1040400048E34383F801038516C001E8F9010083C2
:1040500001E0018304E0028308E1038301E00CC076
:1040600001E8F901008301E0018304E0028308E133
:10407000038302E001C0F90104830FEF058306E02A
:10408000089541E8F901408341E0418344E04283DF
:1040900045E34383F8010389EECF41E8F90140830A
:1040A00041E0418344E0428349E34383F801008DCA
:1040B000E2CF41E8F901408341E0418344E042839B
:1040C0004AE54383F801018DD6CF41E8F9014083E9
:1040D00041E0418344E0428343E64383F80105A580
:1040E000CACF01E8F901008301E0018304E0028303
:1040F0000CE7038304E0C0CFF9010081003909F027
:104100008AC00181003531F403810F3F09F09CC062
:1041100002E00895013431F402810F3F09F094C0A8
:1041200003E00895023431F402810F3F09F08CC09E
:104130000DE00895013531F402810F3F09F084C08C
:1041400004E00895023531F402810F3F09F07CC08C
:104150000EE00895013649F40281013091F40381A3
:104160000F3F09F071C005E00895023609F06CC0F8
:104170000281013071F403810F3F09F065C00FE047
:104180000895023071F403810F3F09F05DC006E02D
:104190000895023071F403810F3F09F055C000E12A
:1041A0000895033071F403810F3F09F04DC007E01B
:1041B0000895033069F403810F3F09F045C001E120
:1041C0000895043061F403810F3FF1F508E008958C
:1041D000043061F403810F3FB9F502E10895053021
:1041E00061F403810F3F81F509E00895053061F422
:1041F00003810F3F49F503E10895013429F5038157
:104200000F3F11F50AE008950134F1F403810F3FE7
:10421000D9F404E108950838B9F40181003341F478
:104220000281023089F403810F3F71F401E00895A7
:10423000013051F40281002339F40381013021F46B
:1042400004810F3F09F464CF00E0089501E8F9010B
:10425000008309E0018304E00283F0E0E42FE058EA
:10426000FF4F0491F9011ECEF90100810039A1F43C
:104270000181003589F403810F3F71F4028102301E
:1042800021F401E0FA0100830895033029F400E0ED
:10429000FA01008301E0089500E00895BD01F901ED
:1042A000DA0100810039D9F401810035C1F40681B9
:1042B0000F3FA9F43281330F330F330F330F1381C4
:1042C0001F70310F048110E1019F202D058110E046
:1042D0000F70200F311F2D933C9301E001C000E0CF
:1042E000DB010895F90100810039B1F40181003545
:1042F00099F40281002381F40381002369F406818B
:104300000F3F51F404810295007F15811F70010F4A
:10431000FA01008301E0089500E00895F901408169
:10432000403981F44181403569F443814F3F51F474
:104330002281222311F420E003C0213019F421E06E
:10434000095AB2C000E00895F9014081403981F472
:104350004181403569F443814F3F51F4228122303D
:1043600011F421E003C0233019F422E0085A9CC064
:1043700000E00895F9014081403981F441814035E0
:1043800069F443814F3F51F42281223011F421E03E
:1043900003C0233019F422E0005A86C000E00895DB
:1043A000F90140814039A1F44181403589F44381CC
:1043B0004F3F71F42281222311F421E003C0213008
:1043C00019F422E00F5970C0223011F423E0FACF23
:1043D00000E00895F9014081403941F441814035C0
:1043E00029F446814F3F11F40E5902C000E00895B0
:1043F0001F4F42814295407F53815F70450FF80106
:104400004083F90144814295407F25812F70420FFE
:10441000F801418301E00895F9014081403901F537
:1044200041814035E9F443814F3FD1F42281222379
:1044300011F421E003C0213019F426E00C5934C0F6
:10444000223011F423E0FACF233011F424E0F6CF28
:10445000243011F425E0F2CF253011F422E0EECF24
:1044600000E00895F90140814039E1F4418140358F
:10447000C9F443814F3FB1F42281222311F421E09A
:1044800003C0233019F422E009590EC02A3011F478
:1044900023E0FACF2B3011F424E0F6CF2D3011F4C5
:1044A00025E0F2CF00E008951F4FF801208301E0DE
:1044B0000895F9014081403981F44181403569F422
:1044C00043814F3F51F42281223011F421E003C097
:1044D000233019F422E00859E7CF00E00895F901EC
:1044E00040814039A1F44181403589F443814F3FF7
:1044F00071F42281222311F420E003C0223019F448
:1045000021E00A58D1CF243011F423E0FACF00E0A3
:104510000895BA93AA931C01D80140E050E000E04E
:10452000EA2FF12F1681153058F00C9112E0019FFF
:10453000F001EE54FC4F30E03BBF4791569101E053
:10454000FD011681143080F010E0E00FF11F1081A2
:1045500022E0129FF001EA53FC4F30E03BBF67912D
:104560007691460F571F0395FD011681133080F099
:1045700010E0E00FF11F108122E0129FF001E652DF
:10458000FC4F30E03BBF67917691460F571F039574
:10459000FD011681123080F010E0E00FF11F108154
:1045A00022E0129FF001E251FC4F30E03BBF6791E7
:1045B0007691460F571F0395FD011681112341F097
:1045C00010E0A00FB11F8C9190E0C097480F591FC9
:1045D0008A01C101A991B9910895A0E0B2E0002734
:1045E000A89503951C900C930C901D92001651F405
:1045F000B232B1F7A030A1F7EFEAF5E00081016037
:10460000008308950E7F00830895EFEAF5E00081AE
:104610000460008300E001870FEF1FE720E030E037
:10462000028713872487358736873787308B008149
:104630000D7F00830895AD01ADEBB5E0ED91FD91E7
:104640003C9117973BBF06911C91100F1C93159638
:104650000D911D91232F0F5F1F4F2F4F2C931E93F2
:104660000E9314970D911D912D913C910150104086
:10467000204030403C932E931E930E9313961D972B
:10468000012B022B032BA9F40C910B7F0C93199691
:104690000C911997EFEFFFE730E03BBF1691011740
:1046A00011F401E001C000E0017000FB0C9101F980
:1046B0000C93DA010895F8940E94ED220E944E1C9A
:1046C0000E949E1C0E94571C0E9405230E942408E1
:1046D0000E947C0E0E94CC1C0E9499130E94DB0653
:1046E000E2E1F2E0018100620183789404C007EF07
:1046F0000093EA05A8950091AF0502FF11C00E9442
:104700001B23EFEAF5E0208121FB20E020F9008166
:1047100001702023E2E1F2E020FB158115F91583F9
:104720000E94A5070E94C21D0E9474130E947B1460
:104730000E94E10E0E943D120E94AB080023B9F2D4
:104740000E943209D7CF03E000936C0308950E94C2
:1047500048014801A22EDA01962F82E024016A2C3A
:104760000BC003E0400E511E611E8230A9F003E031
:10477000400E00E0501E601E4A165B066906A9F056
:10478000F2016BBE47915791669110E04030504066
:10479000604039F3823059F3F2016BBE07911791F3
:1047A0002691F8012CBF1995E2CF8A95B9F6EBE076
:1047B0000C9454010C94200101E0089520E008D0ED
:1047C000E9F708953BBF27913BB702D0D9F7089589
:1047D0002D9301501040202F212B089507E6402EE5
:1047E00004E0502E00E0602EF201362D6BBE0791E2
:1047F0001691F201EE5FFF4F3F4F3BBFA791B6917D
:10480000F201362DEC5FFF4F3F4F3BBF4791579171
:104810006691242F252B262B21F0FA01362FD2DF8B
:1048200001C0CCDF07E0400E00E0501E601EA20178
:10483000662D4E3654406040B8F20895FFCFFFFF1A
:10484000FFFFFFFFFFFFFFFFFFFFFFFFFFFFFFFF78
:10485000FFFFFFFFFFFFFFFFFFFFFFFFFFFFFFFF68
:10486000FFFFFFFFFFFFFFFFFFFFFFFFFFFFFFFF58
:10487000FFFFFFFFFFFFFFFFFFFFFFFFFFFFFFFF48
:107E000000000000060064001027100000400A0077
:107E100014002800D500DF00E900F300FD00070191
:107E200011011B0125012F01390143014D015701AA
:107E300061016B0100000000000000000000000074
:107E4000581B581B581B581B581B581B581B581B9A
:107E5000581B581B581B581B581B581B581B581B8A
:107E6000581B581B581B581B581B581BC800A406EE
:107E7000C8194C043200820000404C31841C7C1034
:107E800000009411220BB603D60100005046FFFFFC
:107E9000E400100028001900000030002400000059
:107EA0000000900048000000DCFF0000000000001F
:107EB00000000000000000000000000000000000C2
:107EC00000000000000000000000000000000000B2
:107ED00000000000000000000000000000000000A2
:107EE0000000000000000000000000000000000092
:107EF0000000000000000000000000000000000082
:107F0000FFFFFFFFFFFFFFFFFFFFFFFFFFFFFFFF81
:107F1000FFFFFFFFFFFFFFFFFFFFFFFFFFFFFFFF71
:107F2000FFFFFFFFFFFFFFFFFFFFFFFFFFFFFFFF61
:107F3000FFFFFFFFFFFFFFFFFFFFFFFFFFFFFFFF51
:107F4000FFFFFFFFFFFFFFFFFFFFFFFFFFFFFFFF41
:107F5000FFFFFFFFFFFFFFFFFFFFFFFFFFFFFFFF31
:107F6000FFFFFFFFFFFFFFFFFFFFFFFFFFFFFFFF21
:107F7000FFFFFFFFFFFFFFFFFFFFFFFFFFFFFFFF11
:107F8000FFFFFFFFFFFFFFFFFFFFFFFFFFFFFFFF01
:107F9000FFFFFFFFFFFFFFFFFFFFFFFFFFFFFFFFF1
:107FA0004B4F5F3333374D332E6865780000000048
:107FB00031322E31312E32303132000000000000DB
:107FC00032303A31350000000000000000000000AF
:107FD0003100000000000000000000000000000070
:107FE000FFFFFFFFFFFFFFFFFFFFFFFFFFFFFFFFA1
:107FF000FFFFFFFFFFFFFFFFFFFFFFFFFFFFFF8808
:0400000300000000F9
:00000001FF
