:020000020000FC
:100000000C94180A18951895189518951895189520
:100010001895189518951895189518951895189578
:100020001895189518951895189518951895189568
:100030000C94DE081895189518951895189518952C
:10004000189518950C94C7010C943C070C949A07CA
:10005000189518950C944D001895189518951895A5
:100060001895189518951895189518951895189528
:1000700018951895189518950C94E0070C9452084B
:1000800018951895189518951895189507B1016247
:1000900007B906B10F6E06B908952A931A930A9309
:1000A0002FB705B10093900400915404109190046F
:1000B000011710F410935404369A2FBF0991199127
:1000C000299118950FEF0093710400912A0415B33C
:1000D000102B15BBD89A00E0009357042CE734E0AE
:1000E00004E814E0F80141918F01F90141939F0167
:1000F00040915704439540935704483098F3ECE7F8
:10010000F4E005810F78009346043281330F0181BA
:1001100014E0019F202D310D3595279535952795B4
:100120000091460412E0019FA00101EF14E0000DD0
:10013000111DF80120833183ECE7F4E0648170E85D
:10014000679F638170E0060E171EFA01E75FFA4FA2
:1001500000821182FA01E755FB4F00821182ECE721
:10016000F4E06581E7E4F4E066FD38C040814E7F4D
:100170004083F8010181000F00E0001F19F00A958B
:1001800029F017C089010E945C010DC031952195AD
:10019000304089010E945C011095209530950195B1
:1001A0001F4F2F4F3F4FE5E9F5E000831183228376
:1001B00033830091460412E0019FE5E9F5E00081F8
:1001C0001181F001EF56FB4F00831183E5E9F5E063
:1001D000008111810150104EF00108C000810160C2
:1001E00000830FEF1FE300191109FA01E35DFB4FD4
:1001F0000083118300E00093490400912E040F73E3
:1002000000932E0400912704009515B3102315BB0D
:1002100000912E040FB9D898ECE7F4E0058104FFB3
:1002200022C00091470401FD23C00091460412E062
:10023000019F0581F00106FD08C0EF56FB4F0081CC
:100240001181F001E050FE4F07C0E755FB4F0081E0
:100250001181F001E05EFD4F00831183E7E4F4E0DB
:100260000081026004C0E7E4F4E000810D7F0083B8
:10027000ECE7F4E0058105FF19C00091470402FD99
:100280001AC0F89406E718E90093B7051093B8056B
:100290000E9400FE00E00093B7050093B805789433
:1002A000E7E4F4E00081046000830895E7E4F4E00B
:1002B00000810B7F00830895592F682F202F46E07F
:1002C0000E94380A0093330510933405022F0F73F0
:1002D00000932A0500913305009325051093260508
:1002E0008091330590913405019680932705909372
:1002F0002805000F111FF801EE5EFA4E30E03BBFFB
:100300000791169100932B0510932C05009127055A
:1003100010912805000F111FF801EE5EFA4E3BBF49
:100320000791169100932D0510932E0520912D0510
:1003300030912E0500912B0510912C05201B310BBF
:1003400000912A05039F102D029F002D110D009290
:100350002F051093300546E00E94320A00932905CC
:1003600000912B0510912C052091290530E0020FFA
:10037000131F20E0862F952F089507B3076007BB52
:1003800008B3076008BB709A0FED0DB90895BA93D2
:10039000AA93FA93EA931A920A924A933A932A9367
:1003A0001A930A934FB7009148040050A1F00A95A0
:1003B000F9F00A95D1F10A9509F440C00A9509F4BB
:1003C00056C00A9509F45CC00A9509F476C00A95EE
:1003D00009F47CC0B7C00091490418E0019FF00106
:1003E000E35DFB4F00810FB9009148040395ABC05A
:1003F0000091490410E0F801E95DFB4F208135B31D
:10040000322B35BB000F111F000F111F000F111FE2
:10041000EDE2F4E0E00FF11F03810F73006403834A
:10042000209515B3122315BBDECF0091490418E0C7
:10043000019FF001E35DFB4F0281D5CF009149049C
:1004400010E0F801E95DFB4F208135B3322B35BB5D
:10045000000F111F000F111F000F111FEDE2F4E03C
:10046000E00FF11F05810F7300680583D9CF00915C
:10047000490418E0019FF001E35DFB4F0481B3CF15
:100480000091490410E0F801E95DFB4F208135B38C
:10049000322B35BB000F111F000F111F000F111F52
:1004A000EDE2F4E0E00FF11F0781006C0783209577
:1004B00005B3022305BB078196CF0091490418E0DC
:1004C000019FF001E35DFB4F06818DCF0091490450
:1004D000E02FF0E0E95DFB4F208135B3322B35BBD7
:1004E000E02FF0E0EC5DFB4F0081102F10952BB357
:1004F00021232BBB1BB3102B1BBB00E00093480434
:10050000009149040395009349040330F0F4202F2F
:1005100030E0220F331F220F331F220F331FEDE273
:10052000F4E0E20FF31F21812F732183A02FB0E0AD
:10053000A95DBB4F0C91009515B3102315BB01812C
:100540000FB903C000E0009348044FBF099119910F
:1005500029913991499109901990E991F991A991BD
:10056000B9911895DA92CA927A926A925A924A92FC
:10057000BA93AA932297D89A00E000935704EAE628
:10058000F4E0A3E7B4E00D910193009157040395C3
:10059000009357040930B8F3EAE6F4E01281110F32
:1005A000218134E0239F110D00929B0510939C053F
:1005B00000922105109322051481110F2381239F9E
:1005C000002D110D00929D0510939E051595079520
:1005D000009323051093240500E000935804109124
:1005E000220524E0012F029F012D112049F00A95D8
:1005F00001F10A9509F442C00A9509F460C08CC063
:10060000009121050E945C014091580454E0459FEF
:10061000E5E6F5E0E00DF11D0083118322833383CD
:1006200000E010E42091210530912205021B130BFC
:1006300065C000E010E82091210530912205021BE1
:10064000130B0E945C014091580454E0459FE5E67D
:10065000F5E0E00DF11D00831183228333830091C7
:1006600021051091220510540E945C0110952095DF
:10067000309501951F4F2F4F3F4F42C000912105EC
:1006800010580E945C0110952095309501951F4FE0
:100690002F4F3F4F4091580454E0459FE5E6F5E069
:1006A000E00DF11D008311832283338300E010EC01
:1006B0002091210530912205021B130BD5CF00910B
:1006C00021051195019510400E945C01109520951F
:1006D000309501951F4F2F4F3F4F4091580454E0E4
:1006E000459FE5E6F5E0E00DF11D008311832283CF
:1006F00033830091210510912205105C0E945C015A
:100700004091580454E0459FE1E7F5E0E00DF11D0C
:10071000008311832283338300915804039500934F
:100720005804033008F45BCF00E000935A041091A2
:10073000240524E0012F029F012D112049F00A9584
:1007400001F10A9509F442C00A9509F460C08CC011
:10075000009123050E945C0140915A0454E0459F9A
:10076000EDE7F5E0E00DF11D008311832283338373
:1007700000E010E42091230530912405021B130BA7
:1007800065C000E010E42091230530912405021B90
:10079000130B0E945C0140915A0454E0459FEDE721
:1007A000F5E0E00DF11D0083118322833383009176
:1007B00023051091240510540E945C01109520958A
:1007C000309501951F4F2F4F3F4F42C00091230599
:1007D00010580E945C0110952095309501951F4F8F
:1007E0002F4F3F4F40915A0454E0459FEDE7F5E00D
:1007F000E00DF11D008311832283338300E010ECB0
:100800002091230530912405021B130BD5CF0091B5
:1008100023051195019510400E945C0110952095CB
:10082000309501951F4F2F4F3F4F40915A0454E090
:10083000459FEDE7F5E0E00DF11D00831183228374
:1008400033830091230510912405105C0E945C0104
:1008500040915A0454E0459FE9E8F5E0E00DF11DB0
:10086000008311832283338300915A0403950093FC
:100870005A04033008F45BCFEAE0F0E830E03BBF15
:1008800067917691E5E6F5E0448055806680778053
:100890000FEF1FE1EAE2F0E830E03BBF47915691ED
:1008A000041B150B061B170B40E0169D302D079DF2
:1008B000300D159D202D310D069D200D311D149DEF
:1008C000102D210D341F059D100D211D341F049D79
:1008D000002D110D241F341F4DE00E943E0AE5E358
:1008E000F5E0048B158B268B378B6150704E600FB3
:1008F000711FADE2B4E0FD0162877387EFE9F5E0B7
:1009000062877387E4E0F0E830E03BBF679176915F
:10091000E5E6F5E040805180628073805FE1E4E2CB
:10092000F0E830E03BBF07911691401B510B461B8E
:10093000570B8A0140E0169D302D079D300D159D07
:10094000202D310D069D200D311D149D102D210DE2
:10095000341F059D100D211D341F049D002D110D08
:10096000241F341F4DE00E943E0AE5E3F5E00087B6
:10097000118722873387EAE6F4E055814DE0549FE2
:10098000088219826150704E600F711F0881601BD0
:100990007109FD0164837583EFE9F5E06483758374
:1009A000E6E0F0E830E03BBF67917691E1E7F5E003
:1009B00040805180628073804FEF5FE1E6E2F0E8B3
:1009C00030E03BBF07911691401B510B461B570B64
:1009D0008A0140E0169D302D079D300D159D202D7C
:1009E000310D069D200D311D149D102D210D341F3C
:1009F000059D100D211D341F049D002D110D241F78
:100A0000341F4DE00E943E0AE5E3F5E004871587B8
:100A1000268737876150704E600F711F08811981DA
:100A2000601B710BFD0166837783EFE9F5E0668358
:100A30007783E4E1F0E830E03BBF67917691E5E64B
:100A4000F5E040845184628473845FE1E4E3F0E87C
:100A500030E03BBF07911691401B510B461B570BD3
:100A60008A0140E0169D302D079D300D159D202DEB
:100A7000310D069D200D311D149D102D210D341FAB
:100A8000059D100D211D341F049D002D110D241FE7
:100A9000341F4DE00E943E0A0801E5E3F5E000A79F
:100AA00011A722A733A7EAE6F4E0068110E045E0AB
:100AB0000E942C0A68016150704E600D711D601B10
:100AC000710BFD01648B758BEFE9F5E0648B758B21
:100AD000E6E1F0E830E03BBF67917691E1E7F5E0D1
:100AE00040845184628473845FE1E6E3F0E830E09F
:100AF0003BBF07911691401B510B461B570B8A01B8
:100B000040E0169D302D079D300D159D202D310D97
:100B1000069D200D311D149D102D210D341F059DA6
:100B2000100D211D341F049D002D110D241F341F95
:100B30004DE00E943E0AE5E3F5E004A715A726A7CD
:100B400037A76150704E600F711F6C197D09FD0150
:100B5000668B778BEFE9F5E0668B778BEDE7F5E059
:100B600040815181628173810FEF002E0FE1102EC1
:100B7000E0E2F0E830E03BBF07911691001A110A5D
:100B8000E0E0F0E830E03BBF07911691001A110A4F
:100B900080012224169F302D079F300D159F202D98
:100BA000310D069F200D311D149F102D210D321D7A
:100BB000059F100D211D321D049F002D110D221DBA
:100BC000321D4DE00E943E0AE5E3F5E0008311830B
:100BD00022833383E0E0F0E830E03BBF4791569159
:100BE0004150504E400F511F08811981401B510B3D
:100BF0004D935C93119711961197EFE9F5E04083BF
:100C00005183E2E0F0E83BBF67917691E9E8F5E0D7
:100C100040805180628073804FEF5FE1E2E2F0E854
:100C200030E03BBF07911691401B510B461B570B01
:100C30008A01169D302D079D300D159D202D310DFB
:100C4000069D200D311D149D102D210D321D059D79
:100C5000100D211D321D049D002D110D221D321D70
:100C60004DE00E943E0AE5E3F5E004831583268308
:100C700037836150704E600F711F08811981601BAE
:100C8000710BFD0162837383EFE9F5E06283738387
:100C9000E8E0F0E830E03BBF67917691EDE7F5E002
:100CA00044805580668077805FE1E8E2F0E830E0DC
:100CB0003BBF07911691401B510B461B570B8A01F6
:100CC000169D302D079D300D159D202D310D069D53
:100CD000200D311D149D102D210D321D059D100D6F
:100CE000211D321D049D002D110D221D321D4DE0D0
:100CF0000E943E0AE5E3F5E0008B118B228B338BDB
:100D00006150704E600F711FFD0160877187EFE9C0
:100D1000F5E060877187E0E1F0E830E03BBF679184
:100D20007691EDE7F5E040845184628473845FE15D
:100D3000E0E3F0E830E03BBF07911691401B510B18
:100D4000461B570B8A01169D302D079D300D159DB2
:100D5000202D310D069D200D311D149D102D210DCE
:100D6000321D059D100D211D321D049D002D110DFC
:100D7000221D321D4DE00E943E0AE5E3F5E000A38E
:100D800011A322A333A36150704E600F711F6C1921
:100D90007D09FD01608B718BEFE9F5E0608B718B54
:100DA000E2E1F0E830E03BBF67917691E9E8F5E0F9
:100DB00040845184628473845FE1E2E3F0E830E0D0
:100DC0003BBF07911691401B510B461B570B8A01E5
:100DD000169D302D079D300D159D202D310D069D42
:100DE000200D311D149D102D210D321D059D100D5E
:100DF000211D321D049D002D110D221D321D4DE0BF
:100E00000E943E0AE5E3F5E004A315A326A337A359
:100E10006150704E600F711F6C197D09FD01628B6E
:100E2000738BEFE9F5E0628B738B20924904FD012F
:100E300001810F73018300912704009515B31023DE
:100E400015BB01810FB900E900939A00D89822964A
:100E5000A991B9914990599069907990C990D99088
:100E60000895599A579A549A00E90AB906E20093EC
:100E7000950000E109B90895FA93EA932A931A9329
:100E80000A932FB70CB1009361045A9904C05C997E
:100E900002C05B9B04C000E000934F0444C010916B
:100EA0002204011741F4009384040093530401E0E9
:100EB00000934C04F1CF07FDEECF00914F040130B9
:100EC00051F700914C0410E0E4E8F4E0E00FF11F6A
:100ED00000916104008300914C04073040F40081CC
:100EE00010915304100F1093530400914C04039578
:100EF00000934C0400914C040830A8F00091530476
:100F00000F77E0914C04F0E0ED57FB4F1081011793
:100F100011F600E000934C0400934F0401E00093AD
:100F20005104579854982FBF099119912991E9912B
:100F3000F99118952A931A930A932FB700914D04AB
:100F4000005029F00A9551F00A9561F01BC00091FC
:100F500023040CB900914D04039515C0009147047A
:100F60000770F7CF10912304009147040770100F0A
:100F70001F771CB900E000934D0408E00AB900E9AE
:100F80000AB903C000E000934D042FBF09911991E5
:100F90002991189500919B00026000939B0000919D
:100FA0009A00006800939A0000919A0000610093F3
:100FB0009A0006E200939D0000E1009399000895D5
:100FC000FA93EA932A931A930A932FB700919C00FD
:100FD0000093620400919B0002FD08C000919B00F9
:100FE00004FD04C000919B0003FF04C000E00093D7
:100FF0004E0451C00091620410912004011741F485
:10100000009373040093520401E000934A04EFCF6D
:1010100007FDECCF00914E04013041F700914A04E6
:1010200010E0E3E7F4E0E00FF11F009162040083B9
:1010300000914A04083040F4008110915204100FCE
:101040001093520400914A04039500934A040091BE
:101050004A04093000F1009152040F77E0914A04EC
:10106000F0E0EE58FB4F1081011701F600E000930D
:101070004A0400934E0401E00093500400919A004A
:101080000F7700939A0000919A000F7E00939A00C8
:1010900008E7009355042FBF099119912991E9910F
:1010A000F99118952A931A930A932FB700914B043C
:1010B000005029F00A9559F00A9569F01EC0009178
:1010C000210400939C0000914B04039517C00091EC
:1010D00045040770F6CF1091210400914504077074
:1010E000100F1F7710939C0000E000934B0408E062
:1010F00000939A0000E90AB903C000E000934B0492
:101100002FBF0991199129911895F8940FEF009329
:10111000620001E010E00093990510939A05E5E460
:10112000F4E00081016000830E9446000E94CD0827
:101130000E94CA070E94310702E002B90FEF03B90B
:1011400008E001BB0CE002BB0E94BD010FEF0ABB2F
:1011500005EF0BBB0FEF04BB05BB789405B3087F0D
:1011600005BB05B3076005BB08C000E00093500451
:1011700008E200939A000E94B202009150040130EC
:10118000A1F3009151040130C1F700E00093510434
:1011900008E20AB90E946200F0CF00E010E00DBD45
:1011A0000CBD0FBD09E00EBD10937A0004E214EFF0
:1011B0001BBD0ABD07B7006107BF0895FA93EA9304
:1011C0003A932A931A930A933FB70091710400FF50
:1011D00013C0E5E6F4E0008100FD06C000E00093E6
:1011E0006704008101600083009166040038D0F438
:1011F00003950093660416C000915104013049F331
:10120000E5E6F4E0008100FF06C000E0009366041C
:1012100000810E7F008300916704003818F4039565
:101220000093670400916604003828F0E5E4F4E0D8
:1012300000810061008300916704003828F0E5E434
:10124000F4E000810F7E00830091710401FF13C060
:10125000E5E6F4E0008101FD06C000E000936904CA
:10126000008102600083009168040038D0F4039587
:101270000093680416C000915104013049F3E5E67B
:10128000F4E0008101FF06C000E0009368040081E3
:101290000D7F008300916904003818F403950093D2
:1012A000690400916804003828F0E5E4F4E0008166
:1012B0000062008300916904003828F0E5E4F4E05E
:1012C00000810F7D0083EAE2F4E00091450404719F
:1012D0000431008119F415B3102B03C0009515B328
:1012E000102315BB1281009145040472043219F4D5
:1012F00005B3012B03C0109505B3012305BB009175
:101300004504007341F00091450402FF04C00181CF
:1013100015B3102B04C00181009515B3102315BB24
:10132000009154040034E5E4F4E0008110F0026020
:1013300001C00D7F008300E0009354040091550428
:10134000039500935504003810F0AF9A01C0AF9890
:1013500000E0009356040B990BC0008103FF08C006
:10136000009156040395009356040081086018C04C
:101370000B9B0AC0008103FF07C000E000935604E6
:101380000081077F0083E7CF0B9B19C0008103FD1D
:1013900016C0009156040395009356040081077F00
:1013A0000083009156040630B0F20081E9E9F5E0CF
:1013B00003FF10C000811181005F1F4F0FC00B9908
:1013C000DFCF008103FDDCCF00E0009356040081F5
:1013D0000860D8CF00811181015010400083118333
:1013E00000811181083720E0104044F008E70083B5
:1013F0002183E5E4F4E0008104600FC0E0919905E9
:10140000F0919A05329754F401E0009399052093E6
:101410009A05E5E4F4E000810B7F00833FBF09916A
:10142000199129913991E991F99118950C94880AAB
:101430000FE10DBF04E00EBFC0E4D1E00E94460AF8
:10144000002311F00E94580A0E9485080E942A0A6F
:101450000C94160A0C94160A4A951AF0000F111FE4
:10146000FBCF08954A951AF016950795FBCF08957E
:101470004A951AF015950795FBCF08954A952AF0DD
:101480003595279517950795F9CF089501E00895AB
:1014900020E008D0E9F708953BBF27913BB702D081
:1014A000D9F708952D9301501040202F212B089536
:1014B00006E1402E07E1502E00E0602EF201362DAD
:1014C0006BBE07911691F201EE5FFF4F3F4F3BBF9E
:1014D000A791B691F201362DEC5FFF4F3F4F3BBF16
:1014E000479157916691242F252B262B21F0FA0145
:1014F000362FD2DF01C0CCDF07E0400E00E0501EE7
:10150000601EA201662D443257416040B8F2089532
:10151000FFCF0000320065009700C900FB002E01DC
:1015200060019201C401F60129025B028D02BF0233
:10153000F102230355038703B903EB031D044E0493
:101540008004B204E404150547057905AA05DB0506
:101550000D063E066F06A106D2060307340765078F
:101560009607C607F707280858088908B908EA083F
:101570001A094A097A09AA09DA090A0A390A690A12
:10158000980AC80AF70A260B550B840BB30BE20B1B
:10159000100C3F0C6D0C9C0CCA0CF80C260D530D56
:1015A000810DAF0DDC0D090E360E630E900EBD0ED3
:1015B000E90E160F420F6E0F9A0FC60FF10F1D1096
:1015C000481074109F10C910F4101F1149117311A5
:1015D0009D11C711F1111A1244126D129612BF1209
:1015E000E8121013381360138813B013D813FF13C5
:1015F00026144D1474149A14C114E7140D153315E0
:1016000058157D15A315C715EC1511163516591665
:101610007D16A116C416E7160A172D175017721754
:101620009417B617D817F9171A183B185C187C18B6
:101630009C18BD18DC18FC181B193A195919771990
:101640009619B419D219EF190D1A2A1A461A631AE3
:101650007F1A9B1AB71AD31AEE1A091B241B3E1BBA
:10166000591B731B8C1BA61BBF1BD81BF01B091C13
:10167000211C391C501C681C7F1C951CAC1CC21CF6
:10168000D81CED1C031D181D2D1D411D551D691D68
:101690007D1D901DA41DB61DC91DDB1DED1DFF1D6B
:1016A000101E211E321E421E531E631E721E811EFC
:1016B000911E9F1EAE1EBC1ECA1ED71EE51EF11E29
:1016C000FE1E0A1F171F221F2E1F391F441F4E1FE9
:1016D000591F631F6C1F761F7F1F871F901F981F46
:1016E000A01FA71FAF1FB51FBC1FC21FC81FCE1F43
:1016F000D31FD91FDD1FE21FE61FEA1FED1FF11FD9
:10170000F41FF61FF81FFA1FFC1FFE1FFF1FFF1F0D
:10171000FF1FFF1FFF1F8C012D040000000D002084
:10172000042417009091A5A62040800810200102F3
:0117300004B4
:108000000000000000000000000000000000000070
:08801000000000000000000068
:108020000000000000000000000000000000000050
:08803000000000000000000048
:020000021000EC
:10FC0000592F282E0091B7051091B805063728E91D
:10FC1000120709F056C003E0E0E0F0E830E03BBF37
:10FC200000936800E89500E012E0B80180E090E8F9
:10FC300020E030E0203800E0300704F5A89500917E
:10FC40006800102F10FF02C00000F9CF41E002E071
:10FC500010E0129F102D039F100D029F002D110D1B
:10FC6000FB01E00FF11F00811181FC0108014093AD
:10FC70006800E89502962F5F3F4FDCCF805091409F
:10FC800000916800102F10FF02C00000F9CF05E0BE
:10FC9000E0E0F0E830E03BBF00936800E8950091B9
:10FCA0006800102F10FF02C00000F9CF01E100939F
:10FCB0006800E89500916800102F10FF02C0000056
:08FCC000F9CF822D952F089564
:10FFA0005550535F323448312E68657800000000A8
:10FFB00032302E30312E323031320000000000005D
:10FFC00031353A333300000000000000000000002B
:10FFD00056657220320000000000000000000000A2
:0400000300000000F9
:00000001FF
