:020000020000FC
:100000000C943E010C9430350C9431350C943235FF
:100010000C9433350C9434350C9435350C943635BA
:100020000C9437350C9438350C9439350C943A359A
:100030000C943B350C943C350C943D350C943E357A
:100040000C943F350C946B320C9440350C94413534
:100050000C9442350C9443350C9444350C9445353E
:100060000C9446350C944B240C9447350C9407247F
:100070000C9448350C9482220C9449350C944A35E2
:100080000C9486320C944B350C944C350C944D35B5
:100090000C940D260C944E350C9462280C944F351C
:1000A0000C9450350C9451350C9452350C945335B6
:1000B0000C9454350C9455350C9456350C94573596
:1000C0000C9458350C9459350C945A350C944D2990
:1000D0000C945B350C94FE280C9482300C945C35A7
:1000E0000C9430302207003D09003D09003D090015
:1000F0003D09003D09003D09003D09003807004366
:1001000007004E07006607007907008C07009D076F
:1001100000A80700B30700BE0700C90700DA070000
:10012000EE0700FF07000A08001508002008002E4F
:1001300008003C080049080056080087080092089B
:10014000009D0800A80800B30800BE0800C9080008
:10015000D40800DF0800EA0800F908000409003D9F
:1001600009003D09003D09003D09003D09003D0928
:10017000003D09003D09003D09003D09003D090021
:100180003D09003D09003D09003D09000F0900132C
:1001900009001609001909001C09001F090022099D
:1001A0000025090030090000040B00070B00290B93
:1001B000003C0B004C0B00530B005A0B00750B005E
:1001C000930B00A30B00B50B00C10B00CC0B00E997
:1001D0000B00010C00190C00270C00320C003D0C28
:1001E00000480C00530C00640C00790C008D0C00CE
:1001F000980C00A30C00AE0C00C10C00D40C00E75E
:100200000C00F90C00230D002E0D00390D00440DDB
:10021000004F0D005A0D00650D00700D007B0D00A4
:10022000860D00920D009D0D00A80D00B80D00C8B0
:100230000D00D80D00E80D00F80D00080E00180E96
:1002400000280E00380E00450E00520E00620E000F
:100250006F0E007F0E00820E00890E008F0E00953B
:100260000E009B0E00A10E00A70E00AD0E00B80EF2
:1002700000C20E00DB0E00000C94703609E40DBFC6
:1002800006E00EBFCCE5DBE00E942E36002311F025
:100290000E9440360E945D350E942C360C943C0131
:1002A000F999FECF08954F5F5F4FFADF41BD52BD10
:1002B000F89A0895FADF00B508954F5F5F4F41BD8A
:1002C00052BDF894FA9AF99A0FBE08950FB6E8DF76
:1002D00000BDF5CF4A951AF0000F111FFBCF08950E
:1002E000002411241001E0E2EA9592F0001F111F92
:1002F000221F331F001C111C221C331C0416150660
:100300002606370688F3041A150A260A370AECCFA0
:10031000001F111F221F331FA001B101009510956E
:10032000209530950895FF27772312F4F16015D0BA
:10033000332312F4F09509D00E947001F69508F469
:1003400004D0F69508F409C00895309520951095CD
:1003500001951F4F2F4F3F4F089570956095509511
:1003600041955F4F6F4F7F4F089520034006A00FC8
:10037000C800204EA00F530064006400E80374001E
:1003800000028C0300D60274020000000024F40076
:100390000024F4000024F4000024F4000024F400FD
:1003A0000024F4000024F4000024F4000024F400ED
:1003B0000024F4000024F4000024F4000024F400DD
:1003C0000024F4000024F4000024F4000024F400CD
:1003D0000024F4000024F4000024F4000024F400BD
:1003E0000024F4000024F4000024F4000024F400AD
:1003F0000024F4000024F4000024F4000024F4009D
:10040000BA93AA939A938A93002411242224332422
:10041000E0E0F0E080E090E020E031E0A895AC0181
:100420004F5F5F4F0E945A01702FAC010E945A012A
:10043000000E171EA9014F5F5F4F0E945A01702FD7
:10044000A9010E945A01200E371E02962E5F3F4FCF
:100450008D3F9E0718F34FEF50E00E945A01302F56
:100460004EEF50E00E945A010016130609F4E1E035
:100470004FEF51E00E945A01302F4EEF51E00E94A1
:100480005A012016330609F4F1E04BEF50E00E94C8
:100490005A01302F50E04AEF0E945A010837364582
:1004A00009F0E0E04BEF51E00E945A01302F4AEF93
:1004B00051E00E945A010837364509F0F0E00E2F4E
:1004C0000F23C1F002141304E4E8F2E0018511F4F3
:1004D0000F7B01C00064018740E050E0E0E0F1E103
:1004E000A8950E945A0101934F5F5F4F513008F069
:1004F00069C0F6CF01E01F2F10270E2F0123D9F07E
:10050000E4E8F2E001850064018780E090E0E0E04B
:10051000F1E120E031E0A895AC010E945A0100838E
:100520003196A9010E94660101962F5F3F4F9130DD
:1005300008F048C0F0CF0E2F012BD1F4E4E8F2E030
:1005400001850064018780E090E0E0E0F1E120E0D7
:1005500031E0A895A9010E945A0100833196AC01AF
:100560000E94660101962F5F3F4F913058F5F1CF01
:10057000EF2B41F5E4E8F2E0018500640187E0E05B
:10058000FFEF30E0E093E804E093E90400E011E1DC
:100590002FE73BBF479157913BB7D8014D935C93F1
:1005A000D8014D9111968D01A8EEB4E06D917C912A
:1005B000640F751F7C936E932A9559F76093FE1113
:1005C0007093FF1189919991A991B99108958D0125
:1005D000E6E7F4E050E04681440F551FDA01A250EF
:1005E000BF4E4D91A4E9B2E04D93468150E0440FD7
:1005F000551FDA01A250BF4E11965C91A4E9B2E0FA
:1006000011965C93A2E9B2E02D912C7F4481558133
:10061000440F452F441F4370242BA2E9B2E02D93D1
:100620005681A2E9B2E011965C93237E4481558104
:10063000440F452F441F4C71242BA2E9B2E02D93A7
:100640002F714481440F452F441F407E242BE4E842
:10065000F2E02687D8010895BD01E6E7F4E00681BF
:100660004781508510E0000F111FD801A250BF4EE6
:100670004D935C9350E04681440F551FDA01A25020
:10068000BF4E4D91A4E9B2E04D93468150E0440F36
:10069000551FDA01A250BF4E11965C91A4E9B2E059
:1006A00011965C93A2E9B2E02D913C912C7F44819C
:1006B0005581440F452F441F4370242BA2E9B2E01B
:1006C0002D933C935681A2E9B2E011965C93237E70
:1006D00044815581440F452F441F4C71242BA2E9BE
:1006E000B2E02D932F714481440F452F441F407E6B
:1006F000242BE4E8F2E02687DB0108951B2E2A2E46
:10070000BC0100917A0410917B0400781170000FF5
:10071000012F001F202F10917F041370211709F45F
:1007200065C000912F051091300505361E4F09F068
:100730005DC010E040E050E0E0E0F1E1A8952191DB
:100740000E945A01201709F011E04F5F5F4F5130AE
:10075000A8F3113009F04FC0E0E0F1E10081118110
:100760000F5F1F4F0083118300E00093E8040093A4
:10077000E904ECEFF1E1008111810F5F1F4F00836D
:100780001183E0E0F1E10FE721913191A8EEB4E0AF
:100790004D915C91420F531F5C934E930A95A1F7C4
:1007A0004093FE115093FF11F89480E090E0E0E058
:1007B000F1E1AC0121910E945A01201761F00091F2
:1007C0007A0410917B04007811700038114019F4FC
:1007D000022F0E946601A8950196913050F306E71A
:1007E00018E900932A0510932B0505C000E000933B
:1007F0002F0500933005CB01A22DB12D0895BC012A
:1008000000912A0510912B050637184941F50091F2
:100810002F051091300505361E4F09F5E0E0F1E196
:1008200040E051E0CA0111910E945A01101789F06D
:1008300020912A0530912B052637384951F4209113
:100840002F053091300525363E4F19F4012F0E94B7
:100850006601A8954F5F5F4F019729F7FFCFCB0146
:100860000895AD010091790405FF1DC0E4EEF3E0A9
:1008700001E00087008111810287138700E0008773
:100880000285E65BFF4F20813181021B130B209113
:100890008611309187110217130728F0E6E7F4E07C
:1008A00003810F7D038300917A0400FF1DC0E4EEF5
:1008B000F3E001E00087008111810287138700E0E7
:1008C00000870285E65BFF4F22813381021B130BF9
:1008D00020918611309187110217130728F0E6E75F
:1008E000F4E004810E7F04830091760401FF1DC0B3
:1008F000E4EEF3E001E000870081118102871387B5
:1009000000E000870285E65BFF4F20893189021BEA
:10091000130B20918611309187110217130728F0CD
:10092000E6E7F4E000810D7F008300917F0403FF80
:1009300022C0E4EEF3E001E000870081118102872C
:10094000138700E000870285DF01A65BBF4F5E963C
:100950002D913C91021B130BE65BFF4F248D358DCF
:100960000217130740F0E6E7F4E00185077F0187EF
:100970000381006403830091800401FF22C0009181
:100980000B01016000930B01E4EEF3E001E000874E
:10099000008111810287138700E000870285E65BF2
:1009A000FF4F24A535A5021B130B20918611309112
:1009B00087110217130728F0E6E7F4E002850D7FA0
:1009C00002870091800402FF22C000910B010E7F7C
:1009D00000930B01E4EEF3E001E000870081118158
:1009E0000287138700E000870285E65BFF4F26A59C
:1009F00037A5021B130B2091861130918711021726
:100A0000130728F0E6E7F4E002850B7F02870091E8
:100A1000800403FF22C000910B01026000930B01D0
:100A2000E4EEF3E001E00087008111810287138783
:100A300000E000870285E65BFF4F20A931A9021B79
:100A4000130B20918611309187110217130728F09C
:100A5000E6E7F4E00285077F02870091800404FF47
:100A600022C000910B010D7F00930B01E4EEF3E037
:100A700001E00087008111810287138700E0008771
:100A80000285E65BFF4F22A933A9021B130B2091BD
:100A90008611309187110217130728F0E6E7F4E07A
:100AA00002850F7E02870091800405FF22C000911D
:100AB0000B01046000930B01E4EEF3E001E000871A
:100AC000008111810287138700E000870285E65BC1
:100AD000FF4F24A935A9021B130B209186113091D9
:100AE00087110217130728F0E6E7F4E002850F7D6F
:100AF00002870091800406FF22C000910B010B7F4A
:100B000000930B01E4EEF3E001E000870081118126
:100B10000287138700E000870285E65BFF4F26A966
:100B200037A9021B130B20918611309187110217F0
:100B3000130728F0E6E7F4E002850F7B02870091B7
:100B4000800407FF22C000910B01086000930B0195
:100B5000E4EEF3E001E00087008111810287138752
:100B600000E000870285E65BFF4F20AD31AD021B40
:100B7000130B20918611309187110217130728F06B
:100B8000E6E7F4E002850F7702870091810400FF19
:100B900022C000910B01077F00930B01E4EEF3E00C
:100BA00001E00087008111810287138700E0008740
:100BB0000285E65BFF4F22AD33AD021B130B209184
:100BC0008611309187110217130728F0E6E7F4E049
:100BD00003850E7F03870091810401FF1EC05F9A89
:100BE000E4EEF3E001E000870081118102871387C2
:100BF00000E000870285E65BFF4F24AD35AD021BA8
:100C0000130B20918611309187110217130728F0DA
:100C1000E6E7F4E003850D7F03870091810402FF7E
:100C20001EC05F98E4EEF3E001E0008700811181CF
:100C30000287138700E000870285E857FF4F208175
:100C40003181021B130B20918611309187110217FD
:100C5000130728F0E6E7F4E003850B7F0387009194
:100C6000810403FF22C00091020100610093020190
:100C7000E4EEF3E001E00087008111810287138731
:100C800000E000870285E857FF4F22813381021B75
:100C9000130B20918611309187110217130728F04A
:100CA000E6E7F4E00385077F03870091810404FFF2
:100CB00022C0009102010F7E00930201E4EEF3E0F6
:100CC00001E00087008111810287138700E000871F
:100CD0000285E857FF4F24813581021B130B2091B9
:100CE0008611309187110217130728F0E6E7F4E028
:100CF00003850F7E03870091810405FF22C00091C8
:100D00000201086000930201E4EEF3E001E00087D5
:100D1000008111810287138700E000870285E85770
:100D2000FF4F26813781021B130B209186113091D2
:100D300087110217130728F0E6E7F4E003850F7D1B
:100D400003870091810406FF22C000910201077F02
:100D500000930201E4EEF3E001E0008700811181DD
:100D60000287138700E000870285E857FF4F208540
:100D70003185021B130B20918611309187110217C8
:100D8000130728F0E6E7F4E003850F7B0387009163
:100D90007A0401FF1DC0E4EEF3E001E0008700816A
:100DA00011810287138700E000870285E65BFF4F11
:100DB00024813581021B130B2091861130918711FC
:100DC0000217130728F0E6E7F4E004810D7F04839F
:100DD00000917A0402FF1DC0E4EEF3E001E0008719
:100DE000008111810287138700E000870285E65B9E
:100DF000FF4F26813781021B130B20918611309102
:100E000087110217130728F0E6E7F4E004810B7F4F
:100E10000483DA010895BA93AA939A938A9300916E
:100E2000EA040250013408F028C2F0E0FBBFF3E00E
:100E30000F9FF001EC51FF4F0790179006910CBFE8
:100E4000F0011994E0EDFFEF31E03BBF869190E0B7
:100E5000C0978093C8049093C90410919502809321
:100E6000940210939502809394029093950205C288
:100E7000109195022091C40420939402109395023E
:100E80003091C504F6C1109195022091A2042093DF
:100E90009402109395023091A304EBC10CEB12E085
:100EA00000934805109349050091F604002309F4C6
:100EB000E4C1053008F0E1C110E0F801E554FD4F50
:100EC00000810093940210939502D7C100EC12E0C8
:100ED00000934805109349050091F504002309F497
:100EE000CCC10D3008F0C9C110E0F801E154FD4F4C
:100EF000E7CFE6EAF2E0E0934805F0934905009178
:100F0000F704002309F4B9C10E3008F0B6C110E0AF
:100F1000E00FF11F0291D5CF109195023091C502DB
:100F20003F7730939402109395022091C4022F775B
:100F30003093940220939502A0C1109195022091C4
:100F4000F80420939402109395023091F90491C112
:100F5000109195022091FA04209394021093950227
:100F60003091FB0486C1109195022091FC042093DE
:100F70009402109395023091FD047BC1109195026B
:100F80002091FE0420939402109395023091FF0467
:100F900070C1E4EEF3E001E001872481358124870C
:100FA000358700E0018710919502209394021093F9
:100FB00095025FC1A4EEB3E001E0FD0101870D9150
:100FC0001C910287138700E001871091950222850A
:100FD000209394021093950233854BC11091950292
:100FE000A4EEB3E0FD01E45AFF4F20812093940268
:100FF00010939502A45ABF4F11963C913AC110919B
:1010000095022091D204209394021093950230917E
:10101000D3042FC11091950220910C0520939402C6
:101020001093950230910D0524C1109195022091E5
:101030000E05209394021093950230910F0519C16B
:101040000091F404002309F418C1073008F015C119
:1010500010E0F801E256FC4F018133CF0091F30418
:10106000002309F40AC1053008F007C110E0F801B7
:10107000E256FC4F078D25CF0091F204002309F4BE
:10108000FCC00B3008F0F9C010E0F801E85AFC4F42
:10109000E3CF0091F104002309F4EFC00C3008F015
:1010A000ECC010E0F801E85AFC4FE4CFA4EEB3E046
:1010B00001E0FD0100870D911C91119702871387B4
:1010C00000E00087E45AFF4F66857785FD010285C1
:1010D000E45AFF4F008B118B628B738B9B0144E6AC
:1010E00050E060E070E00E947001FD01E45AFF4FA3
:1010F000048B158B10919502FD01E45AFF4F00936C
:10110000940210939502358900939402B4C0109113
:10111000950220911005209394021093950230912E
:101120001105A7C0109195022091120520939402F9
:1011300010939502309113059CC010919502209157
:10114000140520939402109395023091150591C0D7
:101150001091950220911605209394021093950208
:101160003091170586C010919502209118052093A3
:10117000940210939502309119057BC0109195024D
:1011800020911A05209394021093950230911B052B
:1011900070C01091950220911C0520939402109329
:1011A000950230911D0565C01091950220911E0594
:1011B000209394021093950230911F055AC010910C
:1011C00095022091D80420939402109395023091B7
:1011D000D9044FC0109195022091FC115091FD113E
:1011E00020939402109395022093940250939502B9
:1011F00044C0109195022091080520939402109309
:1012000095023091090535C01091950220910A058B
:10121000209394021093950230910B052AC00091FF
:10122000AA0210E04ECE0091AB02FBCF0091AC02BF
:10123000F8CF0091AD02F5CF0091AE02F2CF009150
:10124000AF02EFCF0091B002ECCF10919502E6EA29
:10125000F2E024852093940210939502358509C00D
:101260001091950220910901209394021093950208
:1012700039B1209394023093950289919991A99163
:10128000B9910895E6E7F4E004811581312F3E70AD
:1012900029F10078117026812223D1F0202F212BF3
:1012A00019F40E94E80A20C0003820E0120719F45F
:1012B0000E94E70219C0003021E0120719F40E94D1
:1012C0002C0312C00038114079F40E947E030CC038
:1012D0000038114019F40E947E0315C0E4E8F2E0E2
:1012E00000E006870E940B07E6E7F4E00481158121
:1012F0000F7710780483158300E006830783008747
:1013000002850E7F0287E6E7F4E011851C7F2481C9
:101310003581220F331F3370132B11870895BA9331
:10132000AA93E6E7F4E004810F7E04830091320380
:101330000A3A09F0D1C0E4E8F2E000E00687078746
:10134000008B018BAAE7B2E011963C91307E003011
:10135000304E29F4AAE7B4E02C9120612C9320911F
:10136000800420FD6BC0E4E7F2E03781532F5C710D
:1013700000305C4109F060C0337000303340D1F47C
:1013800020912E05233089F425E63EEF20932F058A
:101390003093300500932E05E6E7F4E02481358193
:1013A00020683160248335831CC0C8F423952093C2
:1013B0002E0517C000932E0540917A0450917B04AE
:1013C0004F775E7F2681378136952795207831705B
:1013D000422B532B40937A0450937B0402C000931A
:1013E0002E0520917A0430917B04317FE4E7F2E00E
:1013F000578156955E70352B20937A0430937B0489
:101400003F78578156955077352B20937A04309347
:101410007B0430917D04408540937C0430937D04AF
:10142000518540937C0450937D0430917F04028564
:1014300000937E0430937F0425DFC7C020917A0497
:1014400050917B04352F220F252F221F40E050772B
:101450004030504519F52370022F268720917A04D9
:10146000220F232F221F207E022B068730917C041F
:10147000378720917D04208B20917E04218BE6E725
:10148000F4E0048115810F77107804831583468377
:101490004783408702850E7F028797C0207E022FF8
:1014A000268740917A0450917B0420E03E702030E2
:1014B0003A4011F2440F452F441F4C71042B06870C
:1014C000E6E7F4E00481152F0F7710780483158385
:1014D000268327832087DECF0C3D09F076C0E0E825
:1014E000F2E0008103700330D9F420912E052330FF
:1014F00091F405E61EEF00932F051093300500E0F0
:1015000000932E05AAE7B4E00D911C9100681160CC
:101510001C930E9320C0E0F400912E05039519C092
:1015200000E000932E0520917A0430917B042F7700
:101530003E7F008111811695102F179500E00795C9
:101540001170202B312B20937A0430937B0403C03D
:1015500000E000932E0500917A0410917B04117F26
:10156000208126952695322F330F3E70132B009342
:101570007A0410937B041F78208122952F70269582
:10158000322F330F330F330F330F132B00937A04A3
:1015900010937B0410917D04218120937C0410938F
:1015A0007D04328120937C0430937D0410917F046C
:1015B000238120937E0410937F04E6E7F4E0028504
:1015C00001600287048100610483A991B9910895A3
:1015D000BA93AA939A938A9300917C0430917D04E4
:1015E00010918404011781F0053408F003C4F0E081
:1015F000FBBFF3E00F9FF001E855FE4F07901790F7
:1016000006910CBFF00119940E940B07F3C35F9978
:10161000F1C384EE93E001E0FC01008700811181B9
:10162000E65BFF4F068F178F00E0FC010087E6E7BF
:10163000F4E001850860018710917E04865B9F4F6E
:10164000FC01348F158F00E0009394020093950203
:10165000D1C3E0EDFFEF31E03BBF869190E0C09752
:101660008093C8049093C904E4E8F2E0808B918BE6
:1016700002E00093EA04BEC3E6E7F4E003810062FF
:10168000038301E0E4EEF3E0008700811181E65B73
:10169000FF4F00831183AAC3E6E9F2E0348330915F
:1016A0007E043583D0CFE6E9F2E0368330917E04C4
:1016B0003783C9CF0091B6021091B7020078232F6B
:1016C0002F77022B0093B6021093B7021078309157
:1016D0007E043F77132B0093B6021093B702E4EB1E
:1016E000F2E0008100610083AECF232F323008F496
:1016F00081C3343108F07EC32A952093EB04009116
:101700007E040093EC04E6E7F4E0048101600483C6
:1017100001E0E4EEF3E0008700811181E65BFF4F1A
:101720000283138363C3E6E7F4E000810260008371
:1017300001E0E4EEF3E0008700811181E65BFF4FFA
:10174000008B118B53C3E6E7F4E003810F7D038325
:1017500004810E7F048300810D7F00830285138541
:10176000017010780287138745C30AE00093EA04EA
:10177000E4E8F2E02091C404208B3091C504318B61
:1017800039C30BE00093EA04E4E8F2E02091A204FC
:10179000208B3091A304F3CF0CE00093EA04309344
:1017A000F6040CEB12E000934805109349050091F4
:1017B000F604002309F41EC3053008F01BC310E033
:1017C000F801E554FD4F00810093940210939502B7
:1017D00011C30DE00093EA043093F50400EC12E02D
:1017E00000934805109349050091F504002309F47E
:1017F00001C30D3008F0FEC210E0F801E154FD4FC6
:10180000E2CF0EE00093EA043093F704A6EAB2E0D8
:10181000A0934805B09349050091F704002309F40B
:10182000E9C20E3008F0E6C210E0A30FB11F0E911E
:10183000CBCF0FE00093EA04E4E8F2E03091C50278
:101840003F77308B2091C4022F77218BD3C200E1E8
:101850000093EA04E4E8F2E02091F804208B309150
:10186000F9048DCF01E10093EA04E4E8F2E020916D
:10187000FA04208B3091FB0482CF02E10093EA044A
:10188000E4E8F2E02091FC04208B3091FD0477CF56
:1018900003E10093EA04E4E8F2E02091FE04208BE7
:1018A0003091FF046CCF04E10093EA04E4EEF3E02E
:1018B00001E00187248135812487358700E0018795
:1018C000E4E8F2E0208B5BCF05E10093EA0401E05D
:1018D000E4EEF3E00187008111810287138700E0C5
:1018E0000187E4E8F2E0AEEEB3E02D91208B118B9E
:1018F00081C206E10093EA04E4E8F2E084EE93E0BA
:10190000DC01A65BBF4F52962D91208B865B9F4FCB
:10191000DC01529611963C9132CF07E10093EA0424
:10192000E4E8F2E02091D204208B3091D30427CF59
:1019300008E10093EA04E4E8F2E020910C05208B32
:1019400030910D051CCF09E10093EA04E4E8F2E0D0
:1019500020910E05208B30910F0511CF0AE10093E5
:10196000EA043093F4040091F404002309F442C221
:10197000073008F03FC210E0F801E256FC4F028148
:1019800023CF0BE10093EA043093F3040091F304B6
:10199000002309F42FC2053008F02CC210E0F80132
:1019A000E256FC4F078D10CF0CE10093EA04309310
:1019B000F2040091F204002309F41CC20B3008F079
:1019C00019C210E0F801E85AFC4F0181FDCE0DE18B
:1019D0000093EA043093F1040091F104002309F428
:1019E00009C20C3008F006C210E0F801E85AFC4FBA
:1019F000D9CF0EE10093EA0484EE93E001E0FC010C
:101A00000087008111810287138700E00087E65B71
:101A1000FF4F60A171A1FC010285E65BFF4F02A3AD
:101A200013A364A375A39B0144E650E060E070E05B
:101A30000E947001FC01E65BFF4F06A317A3E4E8D8
:101A4000F2E0008B54CF0FE10093EA04E4E8F2E007
:101A500020911005208B3091110591CE00E200936A
:101A6000EA04E4E8F2E020911205208B309113059E
:101A700086CE01E20093EA04E4E8F2E02091140546
:101A8000208B309115057BCE02E20093EA04E4E856
:101A9000F2E020911605208B3091170570CE03E2FD
:101AA0000093EA04E4E8F2E020911805208B3091DD
:101AB000190565CE04E20093EA04E4E8F2E020911F
:101AC0001A05208B30911B055ACE05E20093EA04DB
:101AD000E4E8F2E020911C05208B30911D054FCEEB
:101AE00006E20093EA04E4E8F2E020911E05208B70
:101AF00030911F0544CE07E20093EA04E4E8F2E0E7
:101B00002091D804208B3091D90439CE08E200937B
:101B1000EA042091FC115091FD11E4E8F2E0208BE1
:101B2000518B68C109E20093EA04E4E8F2E02091F5
:101B30000805208B3091090522CE0AE20093EA04C1
:101B4000E4E8F2E020910A05208B30910B0517CED6
:101B5000E6E7F4E002850260028701E0E4EEF3E0EC
:101B6000008700811181E65BFF4F04A715A73EC1E6
:101B7000E6E7F4E002850460028701E0E4EEF3E0CA
:101B8000008700811181E65BFF4F06A717A72EC1D2
:101B9000E6E7F4E002850860028701E0E4EEF3E0A6
:101BA000008700811181E65BFF4F00AB11AB1EC1C6
:101BB000E6E7F4E002850061028701E0E4EEF3E08D
:101BC000008700811181E65BFF4F02AB13AB0EC1B2
:101BD000E6E7F4E002850062028701E0E4EEF3E06C
:101BE000008700811181E65BFF4F04AB15ABFEC09F
:101BF000E6E7F4E002850064028701E0E4EEF3E04A
:101C0000008700811181E65BFF4F06AB17ABEEC08A
:101C1000E6E7F4E002850068028701E0E4EEF3E025
:101C2000008700811181E65BFF4F00AF11AFDEC07E
:101C3000E6E7F4E003850160038701E0E4EEF3E00A
:101C4000008700811181E65BFF4F02AF13AFCEC06A
:101C5000E6E7F4E003850260038701E0E4EEF3E0E9
:101C6000008700811181E65BFF4F04AF15AFBEC056
:101C7000E6E7F4E003850460038701E0E4EEF3E0C7
:101C8000008700811181E85703CDE6E7F4E0038582
:101C90000860038701E0E4EEF3E000870081118132
:101CA000E8573DCDE6E7F4E003850061038701E0F6
:101CB000E4EEF3E0008700811181E857FF4F0483D1
:101CC000158394C0E6E7F4E003850062038701E032
:101CD000E4EEF3E0008700811181E85784C0E6E775
:101CE000F4E003850064038701E0E4EEF3E000879D
:101CF00000811181E857FF4F0087118777C0E6E721
:101D0000F4E02CCD0AE30093EA040091AA0210E06B
:101D10005BCD0BE30093EA040091AB02F8CF0CE338
:101D20000093EA040091AC02F2CF0DE30093EA04C1
:101D30000091AD02ECCF0EE30093EA040091AE02F5
:101D4000E6CF0FE30093EA040091AF02E0CF00E496
:101D50000093EA040091B002DACF01E40093EA04B0
:101D6000A2EBB2E0E4E8F2E02D911197208BD2CD06
:101D700002E40093EA04E4E8F2E020910901208BF8
:101D800039B1FDCC232F3230A8F1363098F52A95A1
:101D90002093ED0400917E040093EE04E6E7F4E066
:101DA00004810260048301E0E4EEF3E00087008137
:101DB0001181E65B83CF232F3230E0F03A30D0F44C
:101DC0002A952093EF0400917E040093F004E6E747
:101DD000F4E004810460048301E0E4EEF3E00087B2
:101DE00000811181E65BFF4F0683178300E0E4EE7C
:101DF000F3E00087E4E8F2E030917C0437878991D2
:101E00009991A991B99108950D01E4E8F2E0058551
:101E100000610587E4EBF2E0008111810C7F1B7EFD
:101E2000008311830091D8041091D9040093DB043E
:101E30001093DC040091C4041091C5040093DD04E8
:101E40001093DE042091DD043091DE044091DB0428
:101E50005091DC048A01021B130B0093DF041093E2
:101E6000E004013060E016073CF411950195104044
:101E70000093DF041093E004E0E0F1E100891189B0
:101E80006091DF047091E004061717071CF000E072
:101E900000933105009132051091330504171507A1
:101EA000A9F100891189BA01600F711F62177307C8
:101EB00024F401E00093310530C0401B510B24177E
:101EC000350724F502E000933105A1E9B2E00C9159
:101ED0000F7E0C930091B4021091B5020160009343
:101EE000B4021093B502028913892091DF04309166
:101EF000E0040217130740F50091DB041091DC04A5
:101F00000093320510933305D001089500913105F7
:101F10000A9519F00A95C9F2EFCFA1E9B2E00C9148
:101F20000F7E0C930091B4021091B50202600093F1
:101F3000B4021093B502028913892091DF04309115
:101F4000E00402171307C0F2E4EBF2E01181146120
:101F50001183D2CF00918904002369F00A9509F416
:101F60006BC00A9509F4BAC00A9509F4F7C00A953E
:101F700009F442C108950091D8041091D904009346
:101F8000DB041093DC040091C4041091C504009399
:101F9000DD041093DE042091DB043091DC044091D9
:101FA000DD045091DE048901041B150B0093DF044E
:101FB0001093E004013060E016073CF411950195A0
:101FC00010400093DF041093E00400911011109171
:101FD0001111B901600F711F6417750754F4009156
:101FE0008504039500938504063008F40DC101E0D3
:101FF0000EC0201B310B42175307ACF4009185042F
:10200000039500938504063008F4FEC002E00093B7
:10201000890400E0009385040093860400938704FC
:1020200000938804089500E000938504E4E8F2E05A
:102030000585006105870895E4E8F2E005850F7ED7
:1020400005870091D8041091D9040093DB04109304
:10205000DC040091C4041091C5040093DD041093C6
:10206000DE042091DD043091DE040091DB04109148
:10207000DC0440910E1150910F11B801640F751FCF
:102080006217730724F500561F4F021713073CF41D
:102090000091B4021091B5020C7F026051C0009112
:1020A0008604039500938604033090F30091860420
:1020B000043008F0A9C0E4EBF2E020812C7F2083FB
:1020C000033009F0A1C000E0009386040895E4EB1A
:1020D000F2E000810C7F008303E08BC0E4E8F2E0D3
:1020E00005850F7E05870091D8041091D9040093CF
:1020F000DB041093DC040091C4041091C504009328
:10210000DD041093DE042091DD043091DE04E091C3
:10211000DB04F091DC0440910E1150910F118F01FE
:10212000041B150B2017310794F6E05AF0402E17C8
:102130003F075CF40091B4021091B5020C7F01607E
:102140000093B4021093B50208950091860403959C
:1021500000938604033008F0A9CFECCF0091D80497
:102160001091D9040093DB041093DC040091C404A3
:102170001091C5040093DD041093DE042091DB046C
:102180003091DC044091DD045091DE04241B350BBA
:1021900089012093DF043093E004213020E012070E
:1021A0003CF41195019510400093DF041093E00476
:1021B00000911011109111112091DF043091E00471
:1021C000021713075CF400918704039500938704BA
:1021D000053039F400E00093890403C000E0009367
:1021E000870400918804039500938804023360F00B
:1021F00004E0009389040895E4E8F2E005850061B5
:10220000058700E0009389040895AD0100917F04E3
:1022100002FF3EC0A5EEB4E0ED91FD913C913BBFC5
:1022200006911091DA04100F1093DA04E5EEF4E051
:1022300000811181232F0F5F1F4F2F4F00831183C8
:102240002283E1EEF4E0008111812281338101508B
:102250001040204030400083118322833383012BC0
:10226000022B032BA9F4E6E7F4E001850B7F01873D
:102270000091DA04EFEFFFEF31E03BBF1691011759
:10228000E4E8F2E0018511F4077F01C008600187EE
:10229000DA01089500917F0407FD13C100917802CF
:1022A0000370023019F500918004067041F400912A
:1022B0008A1106FB00910B0100F900930B010091BC
:1022C0008004087141F400918A1107FB00910B0111
:1022D00001F900930B0100918004007609F0DDC044
:1022E00000910B010B7F00930B01D7C0002309F075
:1022F000D4C010917F0400E01076003020E2120775
:1023000041F500918004067041F400918A1104FBAC
:1023100000910B0100F900930B01009180040871FA
:1023200041F400918A1105FB00910B0101F9009322
:102330000B0100918004007629F400910B010B7FC2
:1023400000930B01E4E8F2E00085037F046000875E
:10235000A4C020E0212B29F00030104409F09DC0DA
:1023600024C000918004067041F400918A1102FBA0
:1023700000910B0100F900930B010091800408719A
:1023800041F400918A1103FB00910B0101F90093C4
:102390000B01E4E8F2E00085037F008710917F04E1
:1023A00000E0107600301044F1F4009180040670D3
:1023B00041F400918A1100FB00910B0100F9009398
:1023C0000B0100918004087141F400918A1101FB16
:1023D00000910B0101F900930B01E4E8F2E00085A4
:1023E000037F0860008710917F04107628E0012F9A
:1023F000029F212D0091200506700695201719F0E7
:102400000092220504C0009122050023B9F4E4EEF5
:10241000F3E001E001872481358124873587018637
:10242000248F358F0093220500918004007621F5DA
:1024300000910B01046000930B011EC00130E1F418
:10244000E4EEF3E001E001872481358124873587BC
:102450000186048D158D201B310B00910811109100
:1024600009112017310740F000910B010B7F0093F9
:102470000B0102E0009322052091200530912105F7
:10248000297F00917F0406950695069506950670AE
:10249000202B2093200530932105009178020370B2
:1024A000023031F4E4E8F2E015851C7F12601587F4
:1024B00000917802037029F4E4E8F2E015851C7FAE
:1024C00015870895BA93AA93E6E7F4E0008D0023F8
:1024D00061F50091C1000F770093C1000091C10028
:1024E0000F7E0093C1000091C1000F7B0093C100DB
:1024F0000091C100077F0093C1000E94AE24A4EEAA
:10250000B3E001E0FD0100870D911C9104AB15AB18
:1025100000E0008704A906AB17AB01E0E6E7F4E0B2
:10252000008F00E002A303A358C3013009F05CC090
:1025300001810160018302E0008F0081037E00833E
:102540000CEB12E000934605109347052AEB32E0AE
:1025500020934405309345050CEC12E044E0F8016B
:10256000408346E0418340E8FF964383F801FF96AD
:10257000448340E0F80146AF47AFEC5BFF4F40813A
:10258000477F408343E0F901408340E0418340912D
:10259000740246FB408146F9408340E8F8014283DB
:1025A000458361E070E0A9019801260F371FFA0109
:1025B0000190AF01F9010282F801208130E0E20FC1
:1025C000F31F2181202521836F5F7F4FF801208138
:1025D000F90131976E177F073CF3020F131FF801C3
:1025E00001810F770183F9C2023009F046C00081F2
:1025F00000FF03C006E0008FF0C20CEC12E020E008
:10260000F80126AF27AFEC5BFF4F2081277F2083A7
:10261000E6E7F4E02081277F208323E0208FE4EEAB
:10262000F3E021E021874481558146A357A320E0B0
:10263000218721E0218742A353A320E02187209115
:10264000C1002F772093C1002091C1002F7E2093DD
:10265000C1002091C10020642093C1002091C100DD
:1026600028602093C100F80126AD30E0020F131F4F
:10267000F80102810093C600B0C2033009F0E8C03F
:1026800001E0E4EEF3E0018724813581248735877A
:1026900000E0018702A113A1201B310B00917211F0
:1026A000109173112017310708F0CDC00CEC12E027
:1026B000F801EC5BFF4F208123FF8FC2F801EC5B38
:1026C000FF4F277F2083F80120A1FF96228321E07E
:1026D000F801E181F0E031973297A4F030E0F801A1
:1026E000E20FF31F30A1F801EF5BFF4F408143275A
:1026F0004083239530E0F801E181F0E031972E1717
:102700003F0764F3F801EF5BFF4F20812F772083B1
:10271000F801418150E0E40FF51F378D231709F0D0
:102720005CC221E030E04150504042305040A4F0C3
:10273000F801E20FF31F40A1E0914605F091470533
:10274000E20FF31F42932F5F3F4FF801E181F0E06A
:1027500031972E173F0764F32091BC023091BD02E0
:1027600021703170213040E0304009F066C0E6E76A
:10277000F4E020812860208324E0208FF801FE9679
:102780004083F801FF964083F801EC5BFF4F208106
:10279000277F20832BE0E0914405F09145052083BD
:1027A000E0914405F091450541832091740226FB98
:1027B000EAEBF2E0208126F92083F801FF964381BD
:1027C000F8014283208130E0E20FF31F418361E092
:1027D00070E02091440530914505F801E081F0E07A
:1027E00031973297CCF0A801460F571FF90101909D
:1027F0009F01FA010282F801408150E0E40FF51FC9
:102800004181402541836F5F7F4FF801E081F0E017
:1028100031976E177F073CF3F801208130E0E20F1B
:10282000F31F21812F77218321E0E4EEF3E021875C
:102830002481358124A335A300CFE6E7F4E00081AD
:10284000077F0083D7CEE6E7F4E000810460F9CF8C
:10285000043009F07BC0E4EEF3E001E0018724815D
:1028600035812487358700E0018704A115A1201B4D
:10287000310B00917211109173112017310718F765
:10288000E0E1F3E0208123FFA8C1277F2083ECEC67
:10289000F2E020A1FF96228321E0ECECF2E0E1815E
:1028A000F0E031973297ACF030E0ECECF2E0E20F80
:1028B000F31F30A1EDE0F3E04081432740832395EF
:1028C00030E0ECECF2E0E181F0E031972E173F07C9
:1028D0005CF3EDE0F3E020812F772083ECECF2E075
:1028E000A181B0E0EA0FFB1F378D231709F075C1F6
:1028F000EEE0F5E0208131812F5F3F4F208331836F
:1029000021E030E011971297B4F0ECECF2E0E20F26
:10291000F31F40A1E0914605F0914705E20FF31F38
:1029200042932F5F3F4FECECF2E0E181F0E0319712
:102930002E173F0754F30091BD0200FD7ECFE6E75E
:10294000F4E000810860008305E055CE053009F011
:102950003EC100A1033009F5EC55FF4F0081118104
:102960000F5F1F4F0083118306E0E6E7F4E0008F5E
:10297000018100680183028101600283A4EEB3E05B
:1029800001E0FD0100870D911C91DD9604AF15AFAC
:1029900000E0008704AD0D931C93E6E7F4E000A18E
:1029A000043009F090C0A4EEB3E001E0FD0100871F
:1029B0000D911C9111970287138700E00087028513
:1029C00024A935A9021B130B20917E1130917F1190
:1029D00002171307D8F1ECE1F5E0008111810F5FD8
:1029E0001F4F0083118306E0E6E7F4E0008F0281C9
:1029F0000260028301E0FD0100870D911C91119797
:102A0000FE960283138300E0FD0100874091801150
:102A10005091811160917E1170917F112224539FFA
:102A20009001469F8001569F100D211D321D749FFD
:102A3000100D211D321D44E650E060E070E00E9460
:102A40009301DE96FD0106831783C7C001E001876D
:102A5000448155814487558700E0018706A117A16D
:102A6000401B510BE2E7F3E030E03BBF07911691CA
:102A70004017510708F4B1C0E6E7F4E002A103955E
:102A800002A302810260028301E0FD0100870D9133
:102A90001C911197FE960283138300E0FD010087CD
:102AA0002091801130918111E6E7F4E002A1039FAB
:102AB000102D029F110DDE96FD010682178302E0A4
:102AC000E6E7F4E098CD053009F087C0A4EEB3E066
:102AD00001E0FD0100870D911C911197028713877A
:102AE00000E00087028526A937A9021B130B20915D
:102AF0008211309183110217130750F1EEE1F5E0D6
:102B0000008111810F5F1F4F0083118306E0E6E70C
:102B1000F4E0008F02810460028301E0FD01008780
:102B20000D911C911197FE960483158300E0FD0121
:102B300000870091841110918511309F302D219FC5
:102B4000300D209F310DDE96FD010086318745C096
:102B500001E00187448155814487558700E0018762
:102B600006A117A1401B510BE4E7F3E030E03BBFA7
:102B7000079116914017510780F1E6E7F4E003A1B1
:102B8000039503A302810460028301E0FD01008735
:102B90000D911C911197FE960483158300E0FD01B1
:102BA00000870091841110918511E6E7F4E023A1DC
:102BB000219F302D209F202D310D04E1039F102DEA
:102BC000029F110DDE96FD010086118778CF063039
:102BD00021F407E0008F00E000A3E6E7F4E00081C5
:102BE00003FBE4E8F2E0118117F9118302FB008195
:102BF00007F90083E6E7F4E0008104FBE4E8F2E093
:102C0000138117F91383ECEBF2E000810170A4E863
:102C1000B2E000FB0C9100F90C93008101FB0C91D8
:102C200001F90C93008103FB0C9103F90C930081D3
:102C300004FB0C9104F90C93008105FB0C9105F940
:102C40000C93008106FB0C9106F90D930181017034
:102C500000FB1C9110F91C93018101FB11F91093E9
:102C6000850202FB12F91093850203FB13F91093FE
:102C7000850204FB14F91093850205FB15F91093E6
:102C8000850206FB16F9109385024281538130912B
:102C90008702307C152F1F77012F10E05695542F97
:102CA000579540E04795040F151F1F73312B009374
:102CB000860230938702A991B9910895BA93AA9395
:102CC00000918B040023B1F50091C1000F770093B0
:102CD000C1000091C1000F7E0093C1000091C100AE
:102CE0000F7B0093C1000091C100077F0093C100DA
:102CF0000E94AE24E6E7F4E000810062008301E078
:102D0000058BA4EEB3E0FD0100870D911C9102AB91
:102D100013AB00E0008701E800930F0300E000938D
:102D20000B0301E00093CD02E0E1F3E00081077FB7
:102D3000008359C0013009F060C0A4EEB3E001E0A7
:102D4000FD0100870D911C9111970287138700E008
:102D50000087ECE7F3E030E03BBF07911691FD01FF
:102D60002285338542A953A9241B350B021713076B
:102D7000D8F0E0E1F3E0008103FF3FC0077F00836C
:102D8000E6E7F4E0008100610083E4E8F2E003811B
:102D90000068038301E0FD0100870D911C9102ABE7
:102DA00013AB00E000871DC00091C1000F770093B6
:102DB000C1000091C1000F7E0093C10001E00087B7
:102DC0000D911C9102AB13AB00E00087E6E7F4E045
:102DD00000810F7E0083E4E8F2E003810F77038334
:102DE00000E000930B030091C10000680093C10054
:102DF0000091C10000610093C100A991B9910895AB
:102E0000BA93AA93E6E7F4E00689002309F072C0BA
:102E10000091C1000F770093C1000091C1000F7EA7
:102E20000093C1000091C1000F7B0093C10000918D
:102E3000C100077F0093C1000E94AE24E6E7F4E0E2
:102E400000810064008301E0068B0081037E008323
:102E500000EC12E000934605109347050AEB12E0E0
:102E60000093440510934505ACECB2E024E02C93AC
:102E70002EE0FD01218320E8FF962383FD01FF96CC
:102E8000248320E0FD0126AF27AFEC5BFF4F2081BC
:102E9000277F208321E0F801208320E021832091F7
:102EA000740226FB208126F9208320E8FD0122837D
:102EB000258341E050E098018D01040F151FF901B1
:102EC00061919F01F80162830C9110E0FD01E00F18
:102ED000F11F0181062701834F5F5F4F0C91F801BD
:102EE00031974E175F0744F3A00FB11FFD01018119
:102EF0000F770183E6E7F4E00689013011F502E07F
:102F0000068BE4EEF3E001E0018704811581028F76
:102F1000138F00E001870091C10000640093C1009D
:102F20000091C10008600093C100ACECB2E0FD016B
:102F300006AD10E0A00FB11FFD0102810093C60095
:102F400056C1023009F04FC1E4EEF3E001E0018721
:102F5000248135812487358700E00187ACECB2E01D
:102F6000028D138D201B310B009172111091731182
:102F70002017310708F02BC1FD01EC5BFF4F0081EA
:102F800003FF35C1FD01EC5BFF4F077F0083FD01AF
:102F900000A1FF96028301E0FD01E181F0E031979D
:102FA0003297A4F010E0FD01E00FF11F10A1FD0128
:102FB000EF5BFF4F208121272083039510E0FD0167
:102FC000E181F0E031970E171F0764F3FD01EF5B1D
:102FD000FF4F00810F770083FD01018110E0FF9614
:102FE0002281FD01E00FF11F378D231709F0FFC08B
:102FF000E4E1F5E0208131812F5F3F4F2083318371
:10300000EEE0F5E0208131812F5F3F4F2083318357
:1030100023E0E6E7F4E0268B21E030E001501040A9
:1030200002301040A4F0FD01E20FF31F00A1E09177
:103030004605F0914705E20FF31F02932F5F3F4FC4
:10304000FD01E181F0E031972E173F0764F3A0EC1A
:10305000B2E00C910170ECEBF2E000FB008100F9B2
:103060000083E4E8F2E0008100F900830C9101FBA9
:103070000091BC0201F90093BC02008101F90083B8
:103080000C9103FB0091BC0203F90093BC02008188
:1030900003F900830C9104FB0091BC0204F9009336
:1030A000BC02008104F900830C9105FB0091BC0275
:1030B00005F90093BC02008105F900830D9106FB20
:1030C0000091BC0206F90093BC02008106F900835E
:1030D0000C91017000FB1091BD0210F91093BD021C
:1030E000118110F911830D9101FB1091BD0211F9AD
:1030F0001093BD02118111F9118302FB1091BD02E1
:1031000012F91093BD02118112F9118303FB109182
:10311000BD0213F91093BD02118113F9118304FB51
:103120001091BD0214F91093BD02118114F911839D
:1031300005FB1091BD0215F91093BD02118115F91F
:10314000118306FB1091BD0216F91093BD02118187
:1031500016F9118311960C910F774E9114964170C8
:10316000542F569540E04795042B04830D911C91F4
:103170001597612F669566956F7145E00E946A010B
:10318000602B65830D9115960E7311F021E001C03F
:1031900020E00D913C911897422F202F2295277007
:1031A000422B232F2695269526952F70000F000F72
:1031B000000F000F007F202B268347830C9100FD1A
:1031C00016C0E6E7F4E000810860008310C003E069
:1031D000E6E7F4E0068BAC5BBF4F0C91077F0C93E6
:1031E00000810460F2CF033011F400E000A3E4E8B2
:1031F000F2E0A6E7B4E00C9103FB118117F911830B
:1032000002FB008107F90083A991B9910895BA934F
:10321000AA93E6E7F4E0038D002309F079C000915A
:10322000C1000F770093C1000091C1000F7E009391
:10323000C1000091C1000F7B0093C1000091C1004B
:10324000077F0093C1000E94AE24E6E7F4E001810D
:103250000860018301E0038F0081037E00830CEB93
:1032600012E000934605109347050AEB12E0009325
:10327000440510934505ECECF2E024E0208326E0C1
:10328000218320E8DF01DF9613962C93DF01DF9680
:1032900014962C9320E0DF01DE962C93DF01DF965D
:1032A0002C93DF01AC5BBF4F2C91277F2C9320E147
:1032B000D8012D9320E02C932091740226FBD80195
:1032C0002C9126F92C9320E82283258341E050E0BD
:1032D00098018F01040F151FD9016D919D01D8012F
:1032E00012966C93008110E0DF01A00FB11F1196C0
:1032F0000C9106270C934F5F5F4F0081D801119707
:103300004A175B0734F3E00FF11F01810F77018348
:10331000E6E7F4E0038D013061F502E0038FE4EEAF
:10332000F3E001E001870481158102A313A300E00B
:1033300001870091C1000F770093C1000091C10087
:103340000F7E0093C1000091C10000640093C10092
:103350000091C10008600093C100ECECF2E0DF01D5
:10336000DF960C9110E0E00FF11F02810093C60080
:10337000A5C0023009F097C0E4EEF3E001E0018758
:10338000248135812487358700E0018702A113A1BC
:10339000201B310B0091721110917311201731070E
:1033A00008F07CC0ECECF2E0DF01AC5BBF4F0C91AD
:1033B00003FF84C0DF01AC5BBF4F077F0C9300A10C
:1033C000DF01DF9612960C9301E0A181B0E0119726
:1033D0001297A4F010E0DF01A00FB11F90961C918E
:1033E000DF01AF5BBF4F2C9121272C93039510E099
:1033F000A181B0E011970A171B0764F3DF01AF5BEF
:10340000BF4F0C910F770C93018110E0DF01DF9625
:1034100012962C91DF01A00FB11F5F963C912317EC
:1034200009F04CC0A6E1B5E02D913C912F5F3F4FD4
:103430003C932E93AEE0B5E02D913C912F5F3F4F32
:103440003C932E9321E030E00150104002301040B8
:10345000A4F0DF01A20FB31F90960C91A091460536
:10346000B0914705A20FB31F0E932F5F3F4FA1816D
:10347000B0E011972A173B0764F30091BD02E6E71D
:10348000F4E000FD06C000810860008303E0038FC4
:1034900015C00081077F008304E0F9CFE6E7F4E080
:1034A00000810460F8CF033029F4008100FF06C0DA
:1034B00001E003C0043011F400E000A3E6E7F4E00B
:1034C000008103FBE4E8F2E0118117F9118302FBAC
:1034D000008107F90083E6E7F4E0008104FBE4E8FB
:1034E000F2E0138117F913830091BC02017000FB15
:1034F000008100F900830091BC0201FB008101F909
:1035000000830091BC0203FB008103F9008300915A
:10351000BC0204FB008104F900830091BC0205FB9E
:10352000008105F900830091BC0206FB008106F9C9
:1035300000830091BD02017000FB118110F911831D
:103540000091BD0201FB11F9118302FB12F91183F5
:1035500003FB13F9118304FB14F9118305FB15F91F
:10356000118306FB16F911834091BE025091BF02F0
:103570003381307C152F1F77012F10E05695542F83
:10358000579540E04795040F151F1F73312B028399
:103590003383A991B9910895BA93AA939A938A9380
:1035A000A6E7B4E0FD01048D002309F073C000918B
:1035B000C1000F770093C1000091C1000F7E0093FE
:1035C000C1000091C1000F7B0093C1000091C100B8
:1035D000077F0093C1000E94AE2411960C910061F8
:1035E0000C93119701E0FD01048F0D91037E0E9362
:1035F0000CEB12E000934605109347052AEB32E0EE
:1036000020934405309345050CEC12E044E0F801AA
:10361000408346E0418340E8FF964383F801FF96EC
:10362000448340E0F80146AF47AFEC5BFF4F408179
:10363000477F408340E1F901408341834091740218
:1036400046FB408146F9408340E8F80142834583C8
:1036500061E070E0A9019801260F371FFA0101907F
:10366000AF01F9010282F801208130E0E20FF31F7F
:103670002181202521836F5F7F4FF8012081C901BF
:103680000197681779073CF3020F131FF8010181B6
:103690000F770183FD01048D013011F502E0048FE5
:1036A000E4EEF3E001E001870481158102A313A396
:1036B00000E001870091C10000640093C100009107
:1036C000C10008600093C1000CEC12E0F80127ADC6
:1036D00030E0020F131FF80102810093C60099C069
:1036E000023009F096C0E4EEF3E001E001872481A6
:1036F00035812487358700E0018702A113A1201BB3
:10370000310B00917211109173112017310708F0DD
:103710007AC0E0E1F3E0208123FF7BC0277F208394
:10372000ECECF2E020A1FF96228321E0ECECF2E049
:10373000E181F0E031973297ACF030E0ECECF2E070
:10374000E20FF31F30A1EDE0F3E040814327408317
:10375000239530E0ECECF2E0818190E001972817AE
:1037600039075CF3EDE0F3E020812F772083ECEC68
:10377000F2E0818190E0E80FF91F378D231709F0FF
:1037800048C021E030E0019782309040B4F0ECEC8A
:10379000F2E0E20FF31F40A1E0914605F0914705EA
:1037A000E20FF31F42932F5F3F4FECECF2E0818179
:1037B00090E001972817390754F3ECEBF2E02181F0
:1037C00020FD1EC02C9128602C93008101710131D5
:1037D000E9F403E0FD01048F00E0058FE856FF4F98
:1037E000008111810F5F1F4F00831183FD01EE5592
:1037F000FF4F008111810F5F1F4F0083118309C0AC
:103800000C91077F02C00C9104600C9304E0FD0151
:10381000048F0C9103FBE4E8F2E0118117F91183A6
:1038200002FB008107F900830C9104FB138117F957
:103830001383ECEBF2E020812170E4E8F2E020FB5E
:10384000208120F92083ECEBF2E0208121FBE4E8E9
:10385000F2E0208121F92083ECEBF2E0208123FBD0
:10386000E4E8F2E0208123F92083ECEBF2E0208110
:1038700024FBE4E8F2E0208124F92083ECEBF2E081
:10388000208125FBE4E8F2E0208125F92083ECEBA0
:10389000F2E0208126FBE4E8F2E0208126F9208393
:1038A000ECEBF2E021812170E4E8F2E020FB3181D1
:1038B00030F93183ECEBF2E0218121FBE4E8F2E026
:1038C00031F9318322FB32F9318323FB33F9318320
:1038D00024FB34F9318325FB35F9318326FB36F996
:1038E0003183ECEBF2E04281538130918702307CEE
:1038F000152F1F77012F10E05695542F579540E054
:103900004795040F151F1F73312B009386023093C8
:103910008702FD01048D033009F0DBC0F89400E05C
:1039200010E00093C5000093C4000093C000009312
:10393000C1000093C200699A719A00932501009317
:1039400024010093200101E00093210111A3789448
:1039500003C000E0FD01058F009174020F70093073
:1039600051F4A895FD01058D002399F50C9100FFF8
:1039700015C001E000A3F8946998719A00E00093E3
:1039800025010093240100932001009321010E944E
:103990004023789404E0FD01048F9FC001E0E4EE31
:1039A000F3E001870481158100A711A700E00187DA
:1039B000F89401E0FD01058F00912401109125018B
:1039C000E4EEF3E002A713A7FD0101A1002321F417
:1039D0007198058D0130C1F40091240110912501E9
:1039E000E4EEF3E004A715A722A533A5021B130BF1
:1039F000003E114018F1009102010860009302019D
:103A000002E0FD01058F02C00230C1F400912401E3
:103A100010912501E4EEF3E006A717A722A533A530
:103A2000021B130B0039124060F100910201077F65
:103A30000093020103E0FD01058F04C0FD01058D27
:103A40000330F9F40091240110912501E4EEF3E034
:103A500000AB11AB22A533A5021B130B003B24E0E6
:103A6000144008F479CFFD0101A1002309F4719AF3
:103A700001A1039501A3023011F400E001A3258FF9
:103A80007894FD01058D043009F066CF01E0E4EE85
:103A9000F3E00187448155814487558700E0018721
:103AA00000A511A5401B510BE6E7F3E030E03BBF5A
:103AB000079116914017510708F04BCF0E949822AA
:103AC0000E9490260E94C02E0E94E2290E944A1164
:103AD00043CF043011F400E000A389919991A9919A
:103AE000B9910895BA93AA93E6E7F4E0028D002312
:103AF00009F079C00091C1000F770093C1000091D7
:103B0000C1000F7E0093C1000091C1000F7B0093A4
:103B1000C1000091C100077F0093C1000E94AE2444
:103B2000E6E7F4E001810460018301E0028F008197
:103B3000037E00830CEB12E00093460510934705CB
:103B40000AEB12E00093440510934505ECECF2E01B
:103B500024E0208326E0218320E8DF01DF9613960E
:103B60002C93DF01DF9614962C9320E0DF01DE9684
:103B70002C93DF01DF962C93DF01AC5BBF4F2C91C0
:103B8000277F2C9321E2D8012D9320E02C932091C4
:103B9000740226FBD8012C9126F92C9320E822836D
:103BA000258341E050E098018F01040F151FD901D2
:103BB0006D919D01D80112966C93008110E0DF0198
:103BC000A00FB11F11960C9106270C934F5F5F4F0A
:103BD0000081D80111974A175B0734F3E00FF11FFA
:103BE00001810F770183E6E7F4E0028D013061F592
:103BF00002E0028FE4EEF3E001E001870481158129
:103C000002A313A300E001870091C1000F77009386
:103C1000C1000091C1000F7E0093C1000091C1005E
:103C200000640093C1000091C10008600093C100CE
:103C3000ECECF2E0DF01DF960C9110E0E00FF11FF9
:103C400002810093C600B0C0023009F097C0E4EED4
:103C5000F3E001E00187248135812487358700E086
:103C6000018702A113A1201B310B00917211109149
:103C700073112017310708F07AC0ECECF2E0DF0195
:103C8000AC5BBF4F0C9103FF8FC0DF01AC5BBF4F3C
:103C9000077F0C9300A1DF01DF9612960C9301E0E1
:103CA000A181B0E011971297A4F010E0DF01A00FFE
:103CB000B11F90961C91DF01AF5BBF4F2C91212764
:103CC0002C93039510E0A181B0E011970A171B0710
:103CD00064F3DF01AF5BBF4F0C910F770C93018151
:103CE00010E0DF01DF9612962C91DF01A00FB11FCB
:103CF0005F963C91231709F057C0A2E1B5E02D91E2
:103D00003C912F5F3F4F3C932E93AEE0B5E02D9159
:103D10003C912F5F3F4F3C932E9321E030E00150C8
:103D2000104002301040A4F0DF01A20FB31F9096A4
:103D30000C91A0914605B0914705A20FB31F0E93B9
:103D40002F5F3F4FA181B0E011972A173B0764F323
:103D50000091BD02E6E7F4E000FD03C000810860C9
:103D600002C00081077F008303E0028F1DC0E6E7E9
:103D7000F4E000810460008304E0F7CF033081F4B5
:103D800000E000A3018100620183E4EEF3E001E0C2
:103D900000870081118102AF13AF00E0008704C0EB
:103DA000043011F400E000A3E6E7F4E0008103FB37
:103DB000E4E8F2E0118117F9118302FB008107F9B1
:103DC0000083E6E7F4E0008104FBE4E8F2E013811D
:103DD00017F913830091BC02017000FB008100F908
:103DE00000830091BC0201FB008101F90083009176
:103DF000BC0203FB008103F900830091BC0204FBB9
:103E0000008104F900830091BC0205FB008105F9E3
:103E100000830091BC0206FB008106F9008300913B
:103E2000BD02017000FB118110F911830091BD02E8
:103E300001FB11F9118302FB12F9118303FB13F942
:103E4000118304FB14F9118305FB15F9118306FB9B
:103E500016F911834091BE025091BF023381307C2C
:103E6000152F1F77012F10E05695542F579540E0DE
:103E70004795040F151F1F73312B02833383A991BC
:103E8000B9910895BA93AA93E6E7F4E0078900236D
:103E900009F076C00091C1000F770093C100009136
:103EA000C1000F7E0093C1000091C1000F7B009301
:103EB000C1000091C100077F0093C1000E94AE24A1
:103EC000E6E7F4E000810068008301E0078B0CEB7B
:103ED00012E000934605109347050AEB12E00093A9
:103EE000440510934505ECECF2E024E0208321E04A
:103EF000218320E8DF01DF9613962C9321E8DF0170
:103F0000DF9614962C9320E0DF01DE962C93DF01E0
:103F1000DF962C93DF01AC5BBF4F2C91277F2C9356
:103F200020E0D8012D932C932091740226FBD80118
:103F30002C9126F92C9320E82283258341E050E040
:103F400098018F01040F151FD9016D919D01D801B2
:103F500012966C93008110E0DF01A00FB11F119643
:103F60000C9106270C934F5F5F4F0081D80111978A
:103F70004A175B0734F3E00FF11F01810F770183CC
:103F8000E6E7F4E00789013011F502E0078BE4EE83
:103F9000F3E001E000870081118100A311A300E09C
:103FA00000870091C10000640093C1000091C1002E
:103FB00008600093C100ECECF2E0DF01DF960C91A9
:103FC00010E0E00FF11F02810093C60062C00230D2
:103FD00009F05BC0E4EEF3E001E0008700811181AD
:103FE0000287138700E0008700917411109175110A
:103FF0002285338540A151A1241B350B02171307DD
:1040000020F1ECECF2E0DF01AC5BBF4F0C9103FF61
:1040100040C0AEE0B5E00D911C910F5F1F4F1C93A7
:104020000E93EC5BFF4F0081077F0083E6E7F4E02F
:10403000008100610083E4E8F2E00381006803830B
:1040400003E0E6E7F4E0078B24C00091C1000F779E
:104050000093C1000091C1000F7E0093C100009148
:10406000C1000F7B0093C1000091C100077F009346
:10407000C100E6E7F4E000810F7E0083E4E8F2E0AF
:1040800003810F77038301E0DCCF033011F400E0FC
:1040900000A3A991B9910895BA93AA93E6E7F4E031
:1040A000018D002309F079C00091C1000F770093C2
:1040B000C1000091C1000F7E0093C1000091C100BA
:1040C0000F7B0093C1000091C100077F0093C100E6
:1040D0000E94AE24E6E7F4E001810260018301E082
:1040E000018F0081037E00830CEB12E000934605F4
:1040F000109347050AEB12E0009344051093450521
:10410000ECECF2E024E0208326E0218320E8DF01CC
:10411000DF9613962C93DF01DF9614962C9320E004
:10412000DF01DE962C93DF01DF962C93DF01AC5B81
:10413000BF4F2C91277F2C9323E0D8012D9320E0B3
:104140002C932091740226FBD8012C9126F92C93F4
:1041500020E82283258341E050E098018F01040F7D
:10416000151FD9016D919D01D80112966C930081A4
:1041700010E0DF01A00FB11F11960C9106270C93E0
:104180004F5F5F4F0081D80111974A175B0734F3E7
:10419000E00FF11F01810F770183E6E7F4E0018D65
:1041A000013011F502E0018FE4EEF3E001E0018758
:1041B0000481158102A313A300E001870091C100CF
:1041C00000640093C1000091C10008600093C10029
:1041D000ECECF2E0DF01DE960C9110E0E00FF11F55
:1041E00002810093C600B0C0023009F097C0E4EE2F
:1041F000F3E001E00187248135812487358700E0E1
:10420000018702A113A1201B310B009172111091A3
:1042100073112017310708F07AC0ECECF2E0DF01EF
:10422000AC5BBF4F0C9103FF8FC0DF01AC5BBF4F96
:10423000077F0C9300A1DF01DF9612960C9301E03B
:10424000A181B0E011971297A4F010E0DF01A00F58
:10425000B11F90961C91DF01AF5BBF4F2C912127BE
:104260002C93039510E0A181B0E011970A171B076A
:1042700064F3DF01AF5BBF4F0C910F770C930181AB
:1042800010E0DF01DF9612962C91DF01A00FB11F25
:104290005F963C91231709F057C0A0E1B5E02D913E
:1042A0003C912F5F3F4F3C932E93AEE0B5E02D91B4
:1042B0003C912F5F3F4F3C932E9321E030E0015023
:1042C000104002301040A4F0DF01A20FB31F9096FF
:1042D0000C91A0914605B0914705A20FB31F0E9314
:1042E0002F5F3F4FA181B0E011972A173B0764F37E
:1042F0000091BD02E6E7F4E000FD03C00081086024
:1043000002C00081077F008303E0018F1DC0E6E744
:10431000F4E000810460008304E0F7CF033081F40F
:10432000018100640183E4EEF3E001E00087008195
:10433000118100AF11AF00E00087E6E7F4E003C0B1
:10434000043011F400E000A3E6E7F4E0008103FB91
:10435000E4E8F2E0118117F9118302FB008107F90B
:104360000083E6E7F4E0008104FBE4E8F2E0138177
:1043700017F913830091BC02017000FB008100F962
:1043800000830091BC0201FB008101F900830091D0
:10439000BC0203FB008103F900830091BC0204FB13
:1043A000008104F900830091BC0205FB008105F93E
:1043B00000830091BC0206FB008106F90083009196
:1043C000BD02017000FB118110F911830091BD0243
:1043D00001FB11F9118302FB12F9118303FB13F99D
:1043E000118304FB14F9118305FB15F9118306FBF6
:1043F00016F911834091BE025091BF023381307C87
:10440000152F1F77012F10E05695542F579540E038
:104410004795040F151F1F73312B02833383A99116
:10442000B9910895F89404B7077F04BF0091600024
:1044300008610093600000E00093600000910501B6
:104440000F7D0093050103B7016003BF03B70D7F24
:1044500003BF03B7046003BF03B7077F03BF88959B
:10446000089500917C00006800937C0000917C001E
:10447000006400937C0000917C000F7D00937C0021
:1044800000917A000F7B00937A0000917A000F7DF3
:1044900000937A0000917A00086000937A000091FE
:1044A0007A00046000937A0000917A000D7F0093F7
:1044B0007A0000917A00016000937A0000917C00FC
:1044C000077F00937C0000917C000B7F00937C00B1
:1044D00000917C000D7F00937C0000917C000E7F9A
:1044E00000937C0000917A00006800937A000091AC
:1044F0007A00006400937A00E6E7F4E003810F7726
:1045000003830895FA93EA931A930A931FB7E6E791
:10451000F4E00091780005A30091790006A30381DF
:10452000006803831FBF09911991E991F9911895CA
:10453000AD0101E00093ED032091E8033091E90320
:104540002093F0033093F10300E00093ED0300911A
:10455000480410914904F901E01BF10BF29708F4AB
:104560008DC02093480430934904E6E7F4E00381CA
:1045700007FF66C00F7703830091780000A70091C2
:10458000790001A70091CA0412E0019FE00DF11D1E
:10459000A0E2B5E00C9100FD27C030919C04009191
:1045A0009B0406A737A70091CA04019FF001EA58AF
:1045B000FB4F06A517A5E4ECF4E020813181200F24
:1045C000311F2083318306810395068310E02091FB
:1045D0000A1130910B110217130790F11683FD0198
:1045E0000081016000832CC006A517A5A4ECB4E0EF
:1045F0002D913C91201B310B3C932E9330919C04C8
:1046000000919B0406A737A70091CA0412E0019FFE
:10461000F001EA58FB4F06A517A5FD012081318165
:10462000200F311F2083318306810395068310E01C
:1046300020910A1130910B110217130708F016830D
:1046400000917C00077F00937C0000917C000B7F31
:1046500000937C0000917C000D7F00937C00009112
:104660007C000E7F00937C0000917A00006800932C
:104670007A0000917A00006400937A00DA010895CC
:1046800068986998709A719A00910A01086000937D
:104690000A0100910B01086000930B0100910101D8
:1046A00008600093010100910201077F009302015D
:1046B00010E000E00E94763340E056E960E070E0F0
:1046C00000E00E94C63313E000E00E942F3412E0A5
:1046D00000E00E94AA3410E000E00E94FE34009145
:1046E000C1000F770093C1000091C1000F7E0093BD
:1046F000C1000091C1000F7B0093C1000091C10077
:10470000077F0093C1000CEB12E000934605109365
:1047100047050AEB12E00093440510934505089500
:10472000BA93AA93E6E7F4E0028513850078117046
:10473000012B61F400917402000F00E0001F00954E
:1047400000FB00910B0103F900930B0140917402EF
:104750004F70078D401759F10281478F05FF24C024
:10476000009174020F70033021F0043011F0053015
:1047700071F43181307619F42281277041F0A7E875
:10478000B2E00C9100640C9300E000A30DC0063071
:1047900011F0073019F41181107E89F7A7E8B2E013
:1047A0000C910F7B0C9340A302810062028300A155
:1047B000002319F40E945E1626C0013019F40E94ED
:1047C000421F21C0023019F40E9400171CC00330A0
:1047D00019F40E94621217C00430D9F30530C9F3EE
:1047E000063019F40E944C200EC0073019F40E94C4
:1047F000721D09C0083019F40E94071904C009305D
:1048000011F40E94CC1AEDD0A991B9910895BA93F0
:10481000AA93FA93EA932A931A930A932FB7ECEC8C
:10482000F2E0DF01DE960C9103950C93DF01DE963A
:104830000C911081011751F0DF01DE960C9110E010
:10484000E00FF11F02810093C6001CC0ECE0F5E010
:10485000008111810F5F1F4F008311830091C10000
:1048600000680093C1000091C10000610093C10085
:104870000091C1000F7B0093C1000091C100077F30
:104880000093C1002FBF099119912991E991F991E4
:10489000A991B9911895FA93EA933A932A931A93A6
:1048A0000A933FB7E6E7F4E000810F7E00830091B2
:1048B000C60000930C030091C00004FD08C00091E5
:1048C000C00003FD04C00091C00002FF09C0E0E188
:1048D000F3E000810062008300E00093DD0336C056
:1048E00000910B03102F139510930B0320910C03D1
:1048F000F0E0E02FE453FD4F20A30091EC02109173
:104900000F03011701F500910B031091CD02011760
:10491000E9F40091C1000F770093C1000091C1003C
:104920000F7E0093C1000091C1000F7B0093C10076
:104930000091C100077F0093C100E0E1F3E0008136
:104940000860008303C000E000930B033FBF0991A0
:10495000199129913991E991F9911895E6E7F4E0D7
:10496000008105FF05C000E0058B00810F7D0083FD
:10497000008106FF05C000E0068B00810F7B0083ED
:10498000008107FF05C000E0078B00810F770083DF
:10499000018100FF05C000E0008F01810E7F0183CF
:1049A000018101FF05C000E0018F01810D7F0183BE
:1049B000018102FF05C000E0028F01810B7F0183AE
:1049C000018103FF05C000E0038F0181077F0183A0
:1049D000018104FF05C000E0048F01810F7E018387
:1049E0000895AD010091770405FF1BC0E4EEF3E0EC
:1049F00001E00087008111810287138700E00087B2
:104A0000028522AD33AD021B130B2091781130913A
:104A100079110217130728F0E6E7F4E001810F7D12
:104A200001830091770406FF1BC0E4EEF3E001E090
:104A30000087008111810287138700E000870285CB
:104A400020AD31AD021B130B2091781130917911FB
:104A50000217130728F0E6E7F4E001810F7B0183DA
:104A60000091770407FF1BC0E4EEF3E001E000874C
:104A7000008111810287138700E00087028524AD41
:104A800035AD021B130B20917A1130917B11021767
:104A9000130728F0E6E7F4E001810F770183009126
:104AA000780400FF1BC0E4EEF3E001E00087008122
:104AB00011810287138700E00087028526AD37AD9C
:104AC000021B130B20917C1130917D1102171307EB
:104AD00028F0E6E7F4E002810E7F0283009178047B
:104AE00001FF1DC0E4EEF3E001E0008700811181C9
:104AF0000287138700E000870285DF01DE961296A9
:104B00002D913C91021B130BFE96268137810217D3
:104B1000130728F0E6E7F4E002810D7F028300919D
:104B2000780402FF1DC0E4EEF3E001E0008700819D
:104B300011810287138700E000870285DF01DE967E
:104B400014962D913C91021B130BFE962085318506
:104B50000217130728F0E6E7F4E002810B7F0283D7
:104B6000DA010895529853985A9A5B9A0091040179
:104B700000620093040110E001E00E94763340E0FF
:104B800051EE60E070E001E00E94C63314E001E005
:104B90000E942F3410E001E00E94AA3411E001E0ED
:104BA0000E94FE340091C90000680093C900009182
:104BB000C90000610093C9000091C9000F7B0093F8
:104BC000C9000091C900077F0093C9000091050149
:104BD0000F7D00930501E2E1F3E004E100830DE0C5
:104BE000018301E0ED5BFF4F008304E712E00093D7
:104BF00034051093350504E812E00093380510934E
:104C0000390500E812E00093360510933705E6E712
:104C1000F4E000810E7F008308959A938A93FA93BB
:104C2000EA933A932A931A930A933FB71091C900D3
:104C3000012F01FBE6E5F3E0008100F9008300911C
:104C4000CE00009352030091C80004FD04C00091FF
:104C5000C80003FF04C001E00093550357C0009152
:104C600055030130008151F500FF50C000915203FF
:104C70000A3A91F400E0009351030AEA20915103AB
:104C8000F0E0E22FEE5EFC4F00A300E0009355033E
:104C90000DE0009313033AC00C3DC1F500E0009312
:104CA00051030CED20915103F0E0E22FEE5EFC4F3A
:104CB00000A300E00093550306E0EBCF00FDCBCF4F
:104CC000009151030395009351032091520310E08A
:104CD000F801EE5EFC4F20A3009151038091130375
:104CE00090E001970817190789F410935103E6E53E
:104CF000F3E00081086000830091C9000F77009302
:104D0000C9000091C9000F7E0093C9003FBF0991FF
:104D1000199129913991E991F99189919991189570
:104D2000BA93AA939A938A9301E00093ED0320919A
:104D3000E8033091E9032093F0033093F10300E09E
:104D40000093ED030091F2031091F303A901401BBE
:104D5000510B4132534008F452C001E00093ED037F
:104D60002093F2033093F30300E00093ED034091AE
:104D70000611509107116091F4037091F5038901B8
:104D8000061B170B4017510748F42093F403309388
:104D9000F503E6E7F4E00081016000830091C900BB
:104DA0000F770093C9000091C9000F7E0093C900DE
:104DB0000091C9000F7B0093C9000091C900077FD3
:104DC0000093C900A2E1B3E0FD01EC5BFF4F00815D
:104DD000077F008301E0AF5BBF4FFD0102830091BD
:104DE00005010F7D009305010091C9000068009343
:104DF000C9000091C90000610093C9005EC1A2E131
:104E0000B3E0FD01EC5BFF4F008103FF56C1FD01E4
:104E1000EC5BFF4F077F0083FD0100A1EF5BFF4FBD
:104E2000008301E0FD01818190E001978230904094
:104E30009CF010E0E00FF11F10A1FD01EF5BFF4FB0
:104E40002081210F2083039510E0FD01818190E0F6
:104E50000197081719076CF3818190E0EF5BFF4F12
:104E60000081FD01E80FF91F178D011709F011C12D
:104E7000E6E7F4E000810E7F008301E0FD01EF5BD7
:104E8000FF4F02830093ED032091E8032093F20388
:104E90003093F3039093ED032093F4033093F503E1
:104EA000FD0100A10A3A09F060C003A1003409F035
:104EB00042C001A1002321F502A1002309F504A1AC
:104EC0000023F1F405A10023D9F406A10023C1F4C5
:104ED00007A10023A9F400A5002391F401A5002354
:104EE00079F402A5002361F403A5002349F4ECE260
:104EF000F5E0008111810F5F1F4F0083118350C0C7
:104F000001E010E00197823090400CF449C0E00FBE
:104F1000F11F20A1E0913405F0913505E00FF11F5C
:104F200022930F5F1F4FFD01818190E001970817C9
:104F30001907B4F5ECCF01E010E001978230904002
:104F40007CF1E00FF11F20A1E0913405F0913505CF
:104F5000E00FF11F22930F5F1F4FFD01818190E051
:104F6000019708171907E4F4ECCF0C3DC9F401E0F0
:104F700010E00197823090409CF0E00FF11F20A1DB
:104F8000E0913605F0913705E00FF11F22930F5F96
:104F90001F4FFD01818190E00197081719076CF3FD
:104FA0000E94C82D0E948F09E6E7F4E0038105FD09
:104FB00070C00481007309F06CC007A10B3018F4B5
:104FC000039507A305C0E4E8F2E005850F7B05879C
:104FD00005EAFD0102832C9130E0E20FF31F01830B
:104FE00081E090E02091380530913905EC91F0E0B6
:104FF0003197329734F18D01080F191FF901408163
:10500000F801428340917A0440FF09C04091EB04CB
:1050100050E04817590719F44091EC04428342814B
:105020000C9110E0FD01E00FF11F0181040F0183DD
:1050300001962F5F3F4FEC91F0E031978E179F075D
:10504000D4F2009105010062009305010091C900AE
:1050500000640093C9000091C90008600093C90072
:1050600000E0FD0106AF10E00093D2040093D304EA
:1050700000934004009341040091C9000160009333
:10508000C90006ADA00FB11FFD0102810093CE0043
:1050900014C0009105010F7D009305010091C90026
:1050A00000680093C9000091C90000610093C90025
:1050B00001E0AF5BBF4FFD01028389919991A991F6
:1050C000B9910895BA93AA93FA93EA932A931A93FB
:1050D0000A932FB7E2E1F3E0DF01DE960C9103952E
:1050E0000C93DF01DE960C911081011779F000918D
:1050F000C9000E7F0093C900DF01DE960C9110E01D
:10510000E00FF11F02810093CE0013C00091050152
:105110000F7D009305010091C90000680093C9004C
:105120000091C90000610093C90001E0ED5BFF4FF1
:1051300000832FBF099119912991E991F991A991C2
:10514000B991189510E002E00E94763340E056E9EC
:1051500060E070E002E00E94C63313E002E00E94CB
:105160002F3412E002E00E94AA3410E002E00E9414
:10517000FE34009101010E7F0093010100910101B5
:105180000D7F009301010091020101600093020173
:105190000091020102600093020100910401006489
:1051A000009304010091D1000F770093D10000918A
:1051B000D1000F7E0093D1000091D1000F7B0093AE
:1051C000D1000091D100077F0093D100E8E5F3E022
:1051D0000AE000830BE001830EE912E000933C0536
:1051E00010933D0506E912E000933A0510933B0544
:1051F000E4E8F2E00081046000830895BA93AA9382
:10520000FA93EA932A931A930A932FB7E8E5F3E007
:10521000DF01DE960C911081011711F500E0DF012E
:10522000DE960C93009105010F7B00930501009120
:10523000D10000680093D1000091D100006100937B
:10524000D1000091D1000F7B0093D1000091D100DB
:10525000077F0093D100EC5BFF4F0081006113C01A
:105260000091D1000E7F0093D100DF01DE960C91FA
:1052700010E0DF01A00FB11F12960C910093D60031
:10528000FE960081039500832FBF09911991299102
:10529000E991F991A991B99118959A938A93FA9302
:1052A000EA933A932A931A930A933FB70091D60050
:1052B000009398030091D00004FD08C00091D00035
:1052C00003FD04C00091D00002FF0CC0ECE9F3E044
:1052D00000811181097F11230083118300E0009375
:1052E000970360C0E4EEF3E000919C03067001E0D8
:1052F0000187848195818487958700E00187068DE9
:10530000178D11F5801B910B89329040E0F02091B0
:10531000980300919B032017E9F500E000939703A1
:1053200000919703F0E0E02FE85AFC4F20A3009192
:105330009C0310919D03097F0260112300939C033D
:1053400010939D032FC026C0801B910B8832904084
:10535000F0F400919703039500939703209198032D
:1053600010E0F801E85AFC4F20A3009197038091C8
:10537000590390E0019708171907A1F410939703B8
:1053800000919C0310919D03097F0860D6CF00E037
:1053900000939703ECE9F3E000811181097F112369
:1053A00000831183E4EEF3E004851585068F178FE3
:1053B0003FBF0991199129913991E991F991899109
:1053C00099911895BA93AA939A938A938CD1A4EE43
:1053D000B3E001E0FD010187448155814487558791
:1053E00000E0018708E513E024893589BA01621BD2
:1053F000730BECE6F3E030E03BBF079016906015CE
:10540000710508F4DCC0FD01448B558B20917604B6
:1054100021FD10C02AE0F80120832BE0218328E839
:10542000EF5BFF4F2183F801EF5BFF4F22832EE9F3
:1054300032E00FC02AE0F80120832FE0218329E821
:10544000EF5BFF4F2183F801EF5BFF4F228326EADA
:1054500032E020933C0530933D05F801EF5BFF4FB0
:105460004181F8014283208130E0E20FF31F418344
:1054700021E040913A0550913B05F801808190E090
:1054800001978230904044F1B801620F731FFA0116
:105490000080FB01028200907A0402FE09C00090A5
:1054A000EF0411240216130619F40090F00402828E
:1054B0000280F801608170E0E60FF71F61816025CE
:1054C00061832F5F3F4F4F5F5F4FF801808190E016
:1054D000019728173907C4F2209105012064209311
:1054E00005012091D1002F772093D1002091D10088
:1054F0002F7E2093D1002091D10020642093D100F1
:105500002091D10028602093D10020E026AF21E037
:10551000FD0121872D913C9111972287338720E04F
:1055200021872285EC58FF4F40815181B901641BCE
:10553000750B6436704050F1FD01EC58FF4F20832D
:10554000318320910405309105052093FC043093AC
:10555000FD0440910605509107054093FE045093C9
:10556000FF0460910A0570910B05620F731F641BA5
:10557000750B60930A0570930B0520E020930405DA
:10558000209305052093060520930705E4E0F5E048
:10559000208131812F5F3F4F208331832091D100C3
:1055A00021602093D100F80126AD30E0E20FF31F17
:1055B00022812093D600F80126AD239526AFF8016D
:1055C000EC5BFF4F208123FF62C0E6E0F5E0208125
:1055D00031812F5F3F4F20833183F80120A1EF5BA2
:1055E000FF4F208321E0F801E181F0E0319732970D
:1055F000A4F030E0F801E20FF31F30A1F801EF5BF7
:10560000FF4F408143274083239530E0F80181819B
:1056100090E001972817390764F3F801818190E041
:10562000EF5BFF4F2081F801E80FF91F378D23173B
:1056300041F521E0FD0121872D913C911197208FAB
:10564000318F9187E4E8F2E020812B7F208321E0F5
:1056500030E0019782309040A4F0F801E20FF31F90
:1056600040A1E0913C05F0913D05E20FF31F42930C
:105670002F5F3F4FF801818190E00197281739078C
:1056800064F30C5B1F4FF8010081077F008301E08A
:10569000FD0101870D911C9111970287138700E08E
:1056A00001870285208D318D021B130BEAE7F3E0A1
:1056B00030E03BBF479156910417150770F001E0A9
:1056C000FD0101870D911C91008F118F00E0018772
:1056D000E4E8F2E000810460008334D1899199917B
:1056E000A991B99108953B2F2A2EE6E7F4E01381A2
:1056F000512F40E05C70A1F5E4E7F2E05181537076
:1057000040305340D9F4137F1460A8E7B4E01196F9
:105710001C9341E0ACEEB3E04C93A4EEB3E04D91AA
:105720005C91ACE2B4E04D935C9340E0ACEEB3E04E
:105730004C93A6E9B2E00D9103600E93118100E055
:1057400013700030124009F441C0A6E9B2E04D9157
:105750004C7F61816370462BE6E9F2E0408336C0FE
:10576000403004E05007E1F404EE13E041E0F801BA
:105770004087408151814287538740E0408742857E
:10578000085B1F4FF80100811181401B510B443F02
:105790005140E0F0E6E7F4E01381137F186015C094
:1057A0004030584099F40091770204FD0FC05F9893
:1057B00000E05F9901E0E4E8F2E000FB118514F9F4
:1057C0001187E6E7F4E013811C601383E4E7F2E05D
:1057D0004181A6E9B2E042FD04C04D91437F4E9362
:1057E00006C04D91437F4460A6E9B2E04D934181EC
:1057F00044FBA6E9B2E04C9144F94C93418145FB4E
:105800004C9145F94C93418146FB4C9146F94D939F
:105810004281440F40E0441F40FB5C9150F95C938F
:10582000438143FB51F95C934181440F40E0441FA5
:1058300040FB52F95C93448142FB55F95C9343FB76
:1058400057F95C93A4E8B4E06C914381643040FD67
:1058500016C069F00090A411AAE9B2E00D92109070
:10586000A611AAE9B2E011961C92653009F1609187
:10587000A011ACE9B2E06D937091A21115C069F06E
:1058800000909C11AAE9B2E00D9210909E11AAE935
:10589000B2E011961C92653059F060919811ACE914
:1058A000B2E06D9370919A11ACE9B2E011967C93DD
:1058B00044814370423071F5A6E9B2E04C9144FF57
:1058C00015C012964D914C7F62816370462BA8E9FA
:1058D000B2E04D93437F62816695669574E0679F61
:1058E0006CE006224029A8E9B2E04D93A6E9B2E0B7
:1058F0004C9145FF17C012964D914F7C6281629585
:105900006F7070E1679F60E306224029E6E9F2E0EC
:10591000428308C0E6E9F2E04281407F4283408151
:105920004F7C4083E6E7F4E0208120FF08C0E6E9F1
:10593000F2E02281207F228300810F7D0083A22D4F
:10594000B32F089500E05F9901E0E4E8F2E000FB86
:10595000118514F9118700850C7F2091760421FDB3
:105960003BC020919E022370022B008700919E0273
:1059700010919F020C701072012B19F40085037FA7
:10598000008700919E0210919F020C7010720030EF
:10599000104221F40085037F0860008700919E0279
:1059A0000C70043021F40085037F046000870091AF
:1059B0009E0204FB008504F9008700919E0205FB0E
:1059C000008505F9008700919E0206FB008506F917
:1059D000008700919E0224C02091A6022370022B12
:1059E0000087037F2091A6022695269534E0239F09
:1059F0002CE00222002900870091A60204FB00850A
:105A000004F900870091A60205FB008505F90087CF
:105A10000091A60206FB008506F900870091A60208
:105A2000000F00E0001F00FB008507F900870091D0
:105A30009F02017000FB118510F9118700919F02F0
:105A400001FB11F9118702FB12F9118705FB15F90A
:105A500011870091760401FD46C000919F02000F5E
:105A600000E0001F00FB17F911870091A0020170F0
:105A700000FB028500F902870091A00201FB02856C
:105A800001F902870091A00202FB028502F9028758
:105A90000091A00203FB028503F902870091A00296
:105AA00004FB028504F902870091A00205FB028530
:105AB00005F902870091A00206FB028506F902871C
:105AC0000091A002000F00E0001F00FB028507F913
:105AD00002870091A102017000FB138510F9138762
