:020000020000FC
:100000000C943E010C9430350C9431350C943235FF
:100010000C9433350C9434350C9435350C943635BA
:100020000C9437350C9438350C9439350C943A359A
:100030000C943B350C943C350C943D350C943E357A
:100040000C943F350C946B320C9440350C94413534
:100050000C9442350C9443350C9444350C9445353E
:100060000C9446350C944B240C9447350C9407247F
:100070000C9448350C9482220C9449350C944A35E2
:100080000C9486320C944B350C944C350C944D35B5
:100090000C940D260C944E350C9462280C944F351C
:1000A0000C9450350C9451350C9452350C945335B6
:1000B0000C9454350C9455350C9456350C94573596
:1000C0000C9458350C9459350C945A350C944D2990
:1000D0000C945B350C94FE280C9482300C945C35A7
:1000E0000C9430302207003D09003D09003D090015
:1000F0003D09003D09003D09003D09003807004366
:1001000007004E07006607007907008C07009D076F
:1001100000A80700B30700BE0700C90700DA070000
:10012000EE0700FF07000A08001508002008002E4F
:1001300008003C080049080056080087080092089B
:10014000009D0800A80800B30800BE0800C9080008
:10015000D40800DF0800EA0800F908000409003D9F
:1001600009003D09003D09003D09003D09003D0928
:10017000003D09003D09003D09003D09003D090021
:100180003D09003D09003D09003D09000F0900132C
:1001900009001609001909001C09001F090022099D
:1001A0000025090030090000040B00070B00290B93
:1001B000003C0B004C0B00530B005A0B00750B005E
:1001C000930B00A30B00B50B00C10B00CC0B00E997
:1001D0000B00010C00190C00270C00320C003D0C28
:1001E00000480C00530C00640C00790C008D0C00CE
:1001F000980C00A30C00AE0C00C10C00D40C00E75E
:100200000C00F90C00230D002E0D00390D00440DDB
:10021000004F0D005A0D00650D00700D007B0D00A4
:10022000860D00920D009D0D00A80D00B80D00C8B0
:100230000D00D80D00E80D00F80D00080E00180E96
:1002400000280E00380E00450E00520E00620E000F
:100250006F0E007F0E00820E00890E008F0E00953B
:100260000E009B0E00A10E00A70E00AD0E00B80EF2
:1002700000C20E00DB0E00000C94703609E40DBFC6
:1002800006E00EBFCCE5DBE00E942E36002311F025
:100290000E9440360E945D350E942C360C943C0131
:1002A000F999FECF08954F5F5F4FFADF41BD52BD10
:1002B000F89A0895FADF00B508954F5F5F4F41BD8A
:1002C00052BDF894FA9AF99A0FBE08950FB6E8DF76
:1002D00000BDF5CF4A951AF0000F111FFBCF08950E
:1002E000002411241001E0E2EA9592F0001F111F92
:1002F000221F331F001C111C221C331C0416150660
:100300002606370688F3041A150A260A370AECCFA0
:10031000001F111F221F331FA001B101009510956E
:10032000209530950895FF27772312F4F16015D0BA
:10033000332312F4F09509D00E947001F69508F469
:1003400004D0F69508F409C00895309520951095CD
:1003500001951F4F2F4F3F4F089570956095509511
:1003600041955F4F6F4F7F4F089520034006A00FC8
:10037000C800204EA00F530064006400E80374001E
:1003800000028C0300D60274020000000024F40076
:100390000024F4000024F4000024F4000024F400FD
:1003A0000024F4000024F4000024F4000024F400ED
:1003B0000024F4000024F4000024F4000024F400DD
:1003C0000024F4000024F4000024F4000024F400CD
:1003D0000024F4000024F4000024F4000024F400BD
:1003E0000024F4000024F4000024F4000024F400AD
:1003F0000024F4000024F4000024F4000024F4009D
:10040000BA93AA939A938A93002411242224332422
:10041000E0E0F0E080E090E020E031E0A895AC0181
:100420004F5F5F4F0E945A01702FAC010E945A012A
:10043000000E171EA9014F5F5F4F0E945A01702FD7
:10044000A9010E945A01200E371E02962E5F3F4FCF
:100450008D3F9E0718F34FEF50E00E945A01302F56
:100460004EEF50E00E945A010016130609F4E1E035
:100470004FEF51E00E945A01302F4EEF51E00E94A1
:100480005A012016330609F4F1E04BEF50E00E94C8
:100490005A01302F50E04AEF0E945A010837364582
:1004A00009F0E0E04BEF51E00E945A01302F4AEF93
:1004B00051E00E945A010837364509F0F0E00E2F4E
:1004C0000F23C1F002141304E4E8F2E0018511F4F3
:1004D0000F7B01C00064018740E050E0E0E0F1E103
:1004E000A8950E945A0101934F5F5F4F513008F069
:1004F00069C0F6CF01E01F2F10270E2F0123D9F07E
:10050000E4E8F2E001850064018780E090E0E0E04B
:10051000F1E120E031E0A895AC010E945A0100838E
:100520003196A9010E94660101962F5F3F4F9130DD
:1005300008F048C0F0CF0E2F012BD1F4E4E8F2E030
:1005400001850064018780E090E0E0E0F1E120E0D7
:1005500031E0A895A9010E945A0100833196AC01AF
:100560000E94660101962F5F3F4F913058F5F1CF01
:10057000EF2B41F5E4E8F2E0018500640187E0E05B
:10058000FFEF30E0E093E804E093E90400E011E1DC
:100590002FE73BBF479157913BB7D8014D935C93F1
:1005A000D8014D9111968D01A8EEB4E06D917C912A
:1005B000640F751F7C936E932A9559F76093FE1113
:1005C0007093FF1189919991A991B99108958D0125
:1005D000E6E7F4E050E04681440F551FDA01A250EF
:1005E000BF4E4D91A4E9B2E04D93468150E0440FD7
:1005F000551FDA01A250BF4E11965C91A4E9B2E0FA
:1006000011965C93A2E9B2E02D912C7F4481558133
:10061000440F452F441F4370242BA2E9B2E02D93D1
:100620005681A2E9B2E011965C93237E4481558104
:10063000440F452F441F4C71242BA2E9B2E02D93A7
:100640002F714481440F452F441F407E242BE4E842
:10065000F2E02687D8010895BD01E6E7F4E00681BF
:100660004781508510E0000F111FD801A250BF4EE6
:100670004D935C9350E04681440F551FDA01A25020
:10068000BF4E4D91A4E9B2E04D93468150E0440F36
:10069000551FDA01A250BF4E11965C91A4E9B2E059
:1006A00011965C93A2E9B2E02D913C912C7F44819C
:1006B0005581440F452F441F4370242BA2E9B2E01B
:1006C0002D933C935681A2E9B2E011965C93237E70
:1006D00044815581440F452F441F4C71242BA2E9BE
:1006E000B2E02D932F714481440F452F441F407E6B
:1006F000242BE4E8F2E02687DB0108951B2E2A2E46
:10070000BC0100917A0410917B0400781170000FF5
:10071000012F001F202F10917F041370211709F45F
:1007200065C000912F051091300505361E4F09F068
:100730005DC010E040E050E0E0E0F1E1A8952191DB
:100740000E945A01201709F011E04F5F5F4F5130AE
:10075000A8F3113009F04FC0E0E0F1E10081118110
:100760000F5F1F4F0083118300E00093E8040093A4
:10077000E904ECEFF1E1008111810F5F1F4F00836D
:100780001183E0E0F1E10FE721913191A8EEB4E0AF
:100790004D915C91420F531F5C934E930A95A1F7C4
:1007A0004093FE115093FF11F89480E090E0E0E058
:1007B000F1E1AC0121910E945A01201761F00091F2
:1007C0007A0410917B04007811700038114019F4FC
:1007D000022F0E946601A8950196913050F306E71A
:1007E00018E900932A0510932B0505C000E000933B
:1007F0002F0500933005CB01A22DB12D0895BC012A
:1008000000912A0510912B050637184941F50091F2
:100810002F051091300505361E4F09F5E0E0F1E196
:1008200040E051E0CA0111910E945A01101789F06D
:1008300020912A0530912B052637384951F4209113
:100840002F053091300525363E4F19F4012F0E94B7
:100850006601A8954F5F5F4F019729F7FFCFCB0146
:100860000895AD010091790405FF1DC0E4EEF3E0A9
:1008700001E00087008111810287138700E0008773
:100880000285E65BFF4F20813181021B130B209113
:100890008611309187110217130728F0E6E7F4E07C
:1008A00003810F7D038300917A0400FF1DC0E4EEF5
:1008B000F3E001E00087008111810287138700E0E7
:1008C00000870285E65BFF4F22813381021B130BF9
:1008D00020918611309187110217130728F0E6E75F
:1008E000F4E004810E7F04830091760401FF1DC0B3
:1008F000E4EEF3E001E000870081118102871387B5
:1009000000E000870285E65BFF4F20893189021BEA
:10091000130B20918611309187110217130728F0CD
:10092000E6E7F4E000810D7F008300917F0403FF80
:1009300022C0E4EEF3E001E000870081118102872C
:10094000138700E000870285DF01A65BBF4F5E963C
:100950002D913C91021B130BE65BFF4F248D358DCF
:100960000217130740F0E6E7F4E00185077F0187EF
:100970000381006403830091800401FF22C0009181
:100980000B01016000930B01E4EEF3E001E000874E
:10099000008111810287138700E000870285E65BF2
:1009A000FF4F24A535A5021B130B20918611309112
:1009B00087110217130728F0E6E7F4E002850D7FA0
:1009C00002870091800402FF22C000910B010E7F7C
:1009D00000930B01E4EEF3E001E000870081118158
:1009E0000287138700E000870285E65BFF4F26A59C
:1009F00037A5021B130B2091861130918711021726
:100A0000130728F0E6E7F4E002850B7F02870091E8
:100A1000800403FF22C000910B01026000930B01D0
:100A2000E4EEF3E001E00087008111810287138783
:100A300000E000870285E65BFF4F20A931A9021B79
:100A4000130B20918611309187110217130728F09C
:100A5000E6E7F4E00285077F02870091800404FF47
:100A600022C000910B010D7F00930B01E4EEF3E037
:100A700001E00087008111810287138700E0008771
:100A80000285E65BFF4F22A933A9021B130B2091BD
:100A90008611309187110217130728F0E6E7F4E07A
:100AA00002850F7E02870091800405FF22C000911D
:100AB0000B01046000930B01E4EEF3E001E000871A
:100AC000008111810287138700E000870285E65BC1
:100AD000FF4F24A935A9021B130B209186113091D9
:100AE00087110217130728F0E6E7F4E002850F7D6F
:100AF00002870091800406FF22C000910B010B7F4A
:100B000000930B01E4EEF3E001E000870081118126
:100B10000287138700E000870285E65BFF4F26A966
:100B200037A9021B130B20918611309187110217F0
:100B3000130728F0E6E7F4E002850F7B02870091B7
:100B4000800407FF22C000910B01086000930B0195
:100B5000E4EEF3E001E00087008111810287138752
:100B600000E000870285E65BFF4F20AD31AD021B40
:100B7000130B20918611309187110217130728F06B
:100B8000E6E7F4E002850F7702870091810400FF19
:100B900022C000910B01077F00930B01E4EEF3E00C
:100BA00001E00087008111810287138700E0008740
:100BB0000285E65BFF4F22AD33AD021B130B209184
:100BC0008611309187110217130728F0E6E7F4E049
:100BD00003850E7F03870091810401FF1EC05F9A89
:100BE000E4EEF3E001E000870081118102871387C2
:100BF00000E000870285E65BFF4F24AD35AD021BA8
:100C0000130B20918611309187110217130728F0DA
:100C1000E6E7F4E003850D7F03870091810402FF7E
:100C20001EC05F98E4EEF3E001E0008700811181CF
:100C30000287138700E000870285E857FF4F208175
:100C40003181021B130B20918611309187110217FD
:100C5000130728F0E6E7F4E003850B7F0387009194
:100C6000810403FF22C00091020100610093020190
:100C7000E4EEF3E001E00087008111810287138731
:100C800000E000870285E857FF4F22813381021B75
:100C9000130B20918611309187110217130728F04A
:100CA000E6E7F4E00385077F03870091810404FFF2
:100CB00022C0009102010F7E00930201E4EEF3E0F6
:100CC00001E00087008111810287138700E000871F
:100CD0000285E857FF4F24813581021B130B2091B9
:100CE0008611309187110217130728F0E6E7F4E028
:00000001FF
