:020000020000FC
:100000000C942201FFFFFFFFFFFFFFFFFFFFFFFF39
:10001000FFFFFFFFFFFFFFFFFFFFFFFFFFFFFFFFF0
:10002000FFFFFFFFFFFFFFFFFFFFFFFFFFFFFFFFE0
:10003000FFFFFFFFFFFFFFFFFFFFFFFFFFFFFFFFD0
:10004000FFFFFFFF0C94C31CFFFFFFFFFFFFFFFF3D
:10005000FFFFFFFFFFFFFFFFFFFFFFFFFFFFFFFFB0
:10006000FFFFFFFF0C94DF08FFFFFFFF0C947808F1
:10007000FFFFFFFF0C941307FFFFFFFFFFFFFFFFD2
:100080000C94821CFFFFFFFFFFFFFFFFFFFFFFFF3E
:100090000C94F30FFFFFFFFF0C94BE0FFFFFFFFF59
:1000A000FFFFFFFFFFFFFFFFFFFFFFFFFFFFFFFF60
:1000B000FFFFFFFFFFFFFFFFFFFFFFFFFFFFFFFF50
:1000C000FFFFFFFFFFFFFFFFFFFFFFFF0C94301D4F
:1000D000FFFFFFFF0C94031F0C941D14FFFFFFFF95
:1000E0000C94F013004706364638482858572735F1
:1000F0004344395A4A4B4C4D3E4E33592942616272
:1001000063660151341574751722552545024C0953
:10011000008609009D0900B10900ED09002E0A00C2
:100120005B0A002E0A0097090097090097090061F1
:100130000A00710A00AF0A00C30A00D20A00EB0AE3
:1001400000002916003216003516003816003F163A
:10015000004816004F16005216005516005C160097
:100160006316006A1600B31600B316007116007805
:100170001600B31600B31600B31600B316007F16B0
:1001800000B31600821600851600B31600B31600E1
:100190008816009116009416009B1600B31600B343
:1001A00016009E1600A11600A41600A71600B3168E
:1001B00000AA1600F717005B18004F18000018007F
:1001C0000718005B18005B18005B18005B180048FC
:1001D00018005B18005B18000E18005B18005B1815
:1001E000005B18005B18001418005B18005B180017
:1001F0005B18005B18005B18001B18002218005BDE
:1002000018005B18005B18005B18005B18005B1897
:10021000005B18005B18002918005B18005B1800D1
:100220002D18003118005B18005B18005B180035B2
:1002300018003918003D180044180000A32300FFDF
:100240000C941E2409E80DBF07E00EBFCAE8D9E0F0
:100250000E94DC23002311F00E94EE230CE312E045
:1002600020E04FE352E060E00E94A7230E945B235E
:100270000E94DA230C9420014A951AF0000F111FF6
:10028000FBCF08954A951AF016950795FBCF089570
:10029000AA929A928A927A926A925A924A92BA93BD
:1002A000AA939A938A930895AA84998488847F80D4
:1002B0006E805D804C80BB81AA8199818881F0E04D
:1002C000EC0FFD1FEF010895430043004D00530064
:1002D0004200520053004100420041004E005500D0
:1002E00053004E00500041005000430043004400C2
:1002F00043004200490054004200540052004700AD
:100300004600500047005A005000420052004B0087
:10031000410041004700460052005A004C0049008D
:100320005600530057005000530052004F00530036
:1003300046005000410046004F0053005A00500054
:1003400055004E003100530046004900440047006C
:10035000410044004F004600460049005600460058
:1003600049004800460052004D0047004100460049
:1003700047004100470047004500430047004E004A
:100380005500470052004600470052004F0047000A
:1003900052005A00470053005000530052004500DD
:1003A000470052004D0047004600520053005400E1
:1003B000410053004E0055001027204E3075409CE0
:1003C00050C360EAFFFFFFFFFFFFFFFFE803D00716
:1003D000B80BA00F88137017581B401F2823102735
:1003E0006400C8002C019001F4015802BC022003F3
:1003F0008403E8030A0014001E00280032003C00B9
:10040000460050005A0064003132333435363738F4
:10041000393000001027204E3075409C50C360EAF0
:1004200060EA60EA60EA0000E803D007B80BA00FBA
:1004300088137017581B401F282300006400C80051
:100440002C019001F4015802BC0220038403000037
:100450000A0014001E00280032003C004600500034
:100460005A000B06AADC2D4A050002000000F80124
:10047000208320E022A321830895F80132A1408146
:10048000341769F0418170E0430F4F71E40FF71F9B
:100490002283F80102A1039502A301E0089500E080
:1004A0000895F80142A1442399F04A9542A341815D
:1004B00050E0E40FF51F4281F9014083F8012181EA
:1004C0002F3111F420E001C02395218301E008952C
:1004D00000E008956A925A924A92BA93AA939A9324
:1004E0008A932C972801D901662402E00C93E42D0D
:1004F000F12F108106E0109FF001EE53FD4F30E028
:100500003BBF0791E22FFB2F0383F201108106E02E
:10051000109FF001EC53FD4F3BBF0791E22FFB2FE3
:100520000483F201108106E0109FF001EA53FD4FB1
:100530003BBF0791E22FFB2F05830CE2068384E08B
:1005400090E0F2010081025059F1025009F448C0D4
:100550000A9509F458C00A9509F457C0075009F4E0
:1005600065C0035009F464C00A9509F483C00A9574
:1005700009F406C10A9509F446C00A9509F417C1A1
:100580000A9509F459C10A9509F427C10A9509F495
:1005900026C10A9509F439C1005109F464C16BC13F
:1005A00021818E01095F1F4F0E94060600E01B8516
:1005B000112369F0FE013796E00FF61D1081FD0151
:1005C000E00FF61D178303951B85011798F38B85A4
:1005D00004960CE2FD01E80FF91F038301964BC15D
:1005E0000281013011F401E307C0023011F402E38B
:1005F00003C0033021F403E3E22FFB2F07830CE257
:10060000E22FFB2F36C101E330C1078D005DE22FE1
:10061000FB2F07830CE2008701E301870CE20287CE
:1006200001E303870CE204878AE025C106811CC12F
:100630000781005DE22FFB2F07830CE20087F201A8
:1006400020858E01095F1F4F0E94060600E01B8572
:10065000112369F0FE013796E00FF61D1081FD01B0
:10066000E00FF61D118703951B85011798F38B8505
:100670000696AFCF0185005DE22FFB2F07830CE2CA
:100680000087F201228533858E010E94170500E064
:100690001E81112361F0FE01E00FF61D1081FD01A6
:1006A000E00FF61D118703951E810117A0F38E81BF
:1006B00006960CE2FD01E80FF91F03830196F20193
:1006C000248535858E010E94170500E01E811123C7
:1006D00079F0FE01E00FF61D2081AC01400F561DA0
:1006E000FD01E40FF51F238303951E81011788F395
:1006F0000E81800F961D0CE2FD01E80FF91F0383A8
:100700000196F201268537858E010E94170500E0CB
:100710001E81112379F0FE01E00FF61D2081AC014E
:10072000400F561DFD01E40FF51F238303951E8125
:10073000011788F30E81800F961D0CE2FD01E80F72
:10074000F91F03830196F201208931898E010E94ED
:10075000170500E01E81112379F0FE01E00FF61D60
:100760002081AC01400F561DFD01E40FF51F2383CE
:1007700003951E81011788F30E81800F961D29CFE6
:10078000228933898E010E94170500E01E81112302
:1007900061F0FE01E00FF61D1081FD01E00FF61D76
:1007A000178303951E810117A0F38E8111CF248931
:1007B00035898E010E94170500E01E811123A9F3DF
:1007C000FE01E00FF61D1081FD01E00FF61D1783FD
:1007D00003951E81011748F7F3CF028D45C0238D85
:00000001FF
